{
  "address": "0xe9b42237b15C5E81c112675C8654936b8103A98E",
  "abi": [
    {
      "inputs": [
        {
          "internalType": "address",
          "name": "_checkpointManager",
          "type": "address"
        },
        {
          "internalType": "address",
          "name": "_fxRoot",
          "type": "address"
        },
        {
          "internalType": "contract IArbitrator",
          "name": "_arbitrator",
          "type": "address"
        },
        {
          "internalType": "bytes",
          "name": "_arbitratorExtraData",
          "type": "bytes"
        },
        {
          "internalType": "string",
          "name": "_metaEvidence",
          "type": "string"
        },
        {
          "internalType": "string",
          "name": "_termsOfService",
          "type": "string"
        },
        {
          "internalType": "uint256",
          "name": "_winnerMultiplier",
          "type": "uint256"
        },
        {
          "internalType": "uint256",
          "name": "_loserMultiplier",
          "type": "uint256"
        },
        {
          "internalType": "uint256",
          "name": "_loserAppealPeriodMultiplier",
          "type": "uint256"
        }
      ],
      "stateMutability": "nonpayable",
      "type": "constructor"
    },
    {
      "anonymous": false,
      "inputs": [
        {
          "indexed": true,
          "internalType": "bytes32",
          "name": "_questionID",
          "type": "bytes32"
        },
        {
          "indexed": true,
          "internalType": "address",
          "name": "_requester",
          "type": "address"
        }
      ],
      "name": "ArbitrationCanceled",
      "type": "event"
    },
    {
      "anonymous": false,
      "inputs": [
        {
          "indexed": true,
          "internalType": "bytes32",
          "name": "_questionID",
          "type": "bytes32"
        },
        {
          "indexed": true,
          "internalType": "address",
          "name": "_requester",
          "type": "address"
        },
        {
          "indexed": true,
          "internalType": "uint256",
          "name": "_disputeID",
          "type": "uint256"
        }
      ],
      "name": "ArbitrationCreated",
      "type": "event"
    },
    {
      "anonymous": false,
      "inputs": [
        {
          "indexed": true,
          "internalType": "bytes32",
          "name": "_questionID",
          "type": "bytes32"
        },
        {
          "indexed": true,
          "internalType": "address",
          "name": "_requester",
          "type": "address"
        }
      ],
      "name": "ArbitrationFailed",
      "type": "event"
    },
    {
      "anonymous": false,
      "inputs": [
        {
          "indexed": true,
          "internalType": "bytes32",
          "name": "_questionID",
          "type": "bytes32"
        },
        {
          "indexed": true,
          "internalType": "address",
          "name": "_requester",
          "type": "address"
        },
        {
          "indexed": false,
          "internalType": "uint256",
          "name": "_maxPrevious",
          "type": "uint256"
        }
      ],
      "name": "ArbitrationRequested",
      "type": "event"
    },
    {
      "anonymous": false,
      "inputs": [
        {
          "indexed": true,
          "internalType": "uint256",
          "name": "_localDisputeID",
          "type": "uint256"
        },
        {
          "indexed": true,
          "internalType": "uint256",
          "name": "_round",
          "type": "uint256"
        },
        {
          "indexed": false,
          "internalType": "uint256",
          "name": "ruling",
          "type": "uint256"
        },
        {
          "indexed": true,
          "internalType": "address",
          "name": "_contributor",
          "type": "address"
        },
        {
          "indexed": false,
          "internalType": "uint256",
          "name": "_amount",
          "type": "uint256"
        }
      ],
      "name": "Contribution",
      "type": "event"
    },
    {
      "anonymous": false,
      "inputs": [
        {
          "indexed": true,
          "internalType": "contract IArbitrator",
          "name": "_arbitrator",
          "type": "address"
        },
        {
          "indexed": true,
          "internalType": "uint256",
          "name": "_disputeID",
          "type": "uint256"
        },
        {
          "indexed": false,
          "internalType": "uint256",
          "name": "_metaEvidenceID",
          "type": "uint256"
        },
        {
          "indexed": false,
          "internalType": "uint256",
          "name": "_evidenceGroupID",
          "type": "uint256"
        }
      ],
      "name": "Dispute",
      "type": "event"
    },
    {
      "anonymous": false,
      "inputs": [
        {
          "indexed": true,
          "internalType": "contract IArbitrator",
          "name": "_arbitrator",
          "type": "address"
        },
        {
          "indexed": true,
          "internalType": "uint256",
          "name": "_evidenceGroupID",
          "type": "uint256"
        },
        {
          "indexed": true,
          "internalType": "address",
          "name": "_party",
          "type": "address"
        },
        {
          "indexed": false,
          "internalType": "string",
          "name": "_evidence",
          "type": "string"
        }
      ],
      "name": "Evidence",
      "type": "event"
    },
    {
      "anonymous": false,
      "inputs": [
        {
          "indexed": true,
          "internalType": "uint256",
          "name": "_metaEvidenceID",
          "type": "uint256"
        },
        {
          "indexed": false,
          "internalType": "string",
          "name": "_evidence",
          "type": "string"
        }
      ],
      "name": "MetaEvidence",
      "type": "event"
    },
    {
      "anonymous": false,
      "inputs": [
        {
          "indexed": true,
          "internalType": "contract IArbitrator",
          "name": "_arbitrator",
          "type": "address"
        },
        {
          "indexed": true,
          "internalType": "uint256",
          "name": "_disputeID",
          "type": "uint256"
        },
        {
          "indexed": false,
          "internalType": "uint256",
          "name": "_ruling",
          "type": "uint256"
        }
      ],
      "name": "Ruling",
      "type": "event"
    },
    {
      "anonymous": false,
      "inputs": [
        {
          "indexed": true,
          "internalType": "uint256",
          "name": "_localDisputeID",
          "type": "uint256"
        },
        {
          "indexed": true,
          "internalType": "uint256",
          "name": "_round",
          "type": "uint256"
        },
        {
          "indexed": true,
          "internalType": "uint256",
          "name": "_ruling",
          "type": "uint256"
        }
      ],
      "name": "RulingFunded",
      "type": "event"
    },
    {
      "anonymous": false,
      "inputs": [
        {
          "indexed": true,
          "internalType": "uint256",
          "name": "_localDisputeID",
          "type": "uint256"
        },
        {
          "indexed": true,
          "internalType": "uint256",
          "name": "_round",
          "type": "uint256"
        },
        {
          "indexed": false,
          "internalType": "uint256",
          "name": "_ruling",
          "type": "uint256"
        },
        {
          "indexed": true,
          "internalType": "address",
          "name": "_contributor",
          "type": "address"
        },
        {
          "indexed": false,
          "internalType": "uint256",
          "name": "_reward",
          "type": "uint256"
        }
      ],
      "name": "Withdrawal",
      "type": "event"
    },
    {
      "inputs": [],
      "name": "META_EVIDENCE_ID",
      "outputs": [
        {
          "internalType": "uint256",
          "name": "",
          "type": "uint256"
        }
      ],
      "stateMutability": "view",
      "type": "function"
    },
    {
      "inputs": [],
      "name": "MULTIPLIER_DIVISOR",
      "outputs": [
        {
          "internalType": "uint256",
          "name": "",
          "type": "uint256"
        }
      ],
      "stateMutability": "view",
      "type": "function"
    },
    {
      "inputs": [],
      "name": "NUMBER_OF_CHOICES_FOR_ARBITRATOR",
      "outputs": [
        {
          "internalType": "uint256",
          "name": "",
          "type": "uint256"
        }
      ],
      "stateMutability": "view",
      "type": "function"
    },
    {
      "inputs": [],
      "name": "REFUSE_TO_ARBITRATE_REALITIO",
      "outputs": [
        {
          "internalType": "uint256",
          "name": "",
          "type": "uint256"
        }
      ],
      "stateMutability": "view",
      "type": "function"
    },
    {
      "inputs": [],
      "name": "SEND_MESSAGE_EVENT_SIG",
      "outputs": [
        {
          "internalType": "bytes32",
          "name": "",
          "type": "bytes32"
        }
      ],
      "stateMutability": "view",
      "type": "function"
    },
    {
      "inputs": [],
      "name": "VERSION",
      "outputs": [
        {
          "internalType": "string",
          "name": "",
          "type": "string"
        }
      ],
      "stateMutability": "view",
      "type": "function"
    },
    {
      "inputs": [
        {
          "internalType": "uint256",
          "name": "",
          "type": "uint256"
        }
      ],
      "name": "arbitrationIDToDisputeExists",
      "outputs": [
        {
          "internalType": "bool",
          "name": "",
          "type": "bool"
        }
      ],
      "stateMutability": "view",
      "type": "function"
    },
    {
      "inputs": [
        {
          "internalType": "uint256",
          "name": "",
          "type": "uint256"
        }
      ],
      "name": "arbitrationIDToRequester",
      "outputs": [
        {
          "internalType": "address",
          "name": "",
          "type": "address"
        }
      ],
      "stateMutability": "view",
      "type": "function"
    },
    {
      "inputs": [
        {
          "internalType": "uint256",
          "name": "",
          "type": "uint256"
        },
        {
          "internalType": "address",
          "name": "",
          "type": "address"
        }
      ],
      "name": "arbitrationRequests",
      "outputs": [
        {
          "internalType": "enum RealitioForeignArbitrationProxyWithAppeals.Status",
          "name": "status",
          "type": "uint8"
        },
        {
          "internalType": "uint248",
          "name": "deposit",
          "type": "uint248"
        },
        {
          "internalType": "uint256",
          "name": "disputeID",
          "type": "uint256"
        },
        {
          "internalType": "uint256",
          "name": "answer",
          "type": "uint256"
        }
      ],
      "stateMutability": "view",
      "type": "function"
    },
    {
      "inputs": [],
      "name": "arbitrator",
      "outputs": [
        {
          "internalType": "contract IArbitrator",
          "name": "",
          "type": "address"
        }
      ],
      "stateMutability": "view",
      "type": "function"
    },
    {
      "inputs": [],
      "name": "arbitratorExtraData",
      "outputs": [
        {
          "internalType": "bytes",
          "name": "",
          "type": "bytes"
        }
      ],
      "stateMutability": "view",
      "type": "function"
    },
    {
      "inputs": [],
      "name": "checkpointManager",
      "outputs": [
        {
          "internalType": "contract ICheckpointManager",
          "name": "",
          "type": "address"
        }
      ],
      "stateMutability": "view",
      "type": "function"
    },
    {
      "inputs": [
        {
          "internalType": "uint256",
          "name": "",
          "type": "uint256"
        }
      ],
      "name": "disputeIDToDisputeDetails",
      "outputs": [
        {
          "internalType": "uint256",
          "name": "arbitrationID",
          "type": "uint256"
        },
        {
          "internalType": "address",
          "name": "requester",
          "type": "address"
        }
      ],
      "stateMutability": "view",
      "type": "function"
    },
    {
      "inputs": [
        {
          "internalType": "uint256",
          "name": "_externalDisputeID",
          "type": "uint256"
        }
      ],
      "name": "externalIDtoLocalID",
      "outputs": [
        {
          "internalType": "uint256",
          "name": "",
          "type": "uint256"
        }
      ],
      "stateMutability": "view",
      "type": "function"
    },
    {
      "inputs": [
        {
          "internalType": "uint256",
          "name": "_arbitrationID",
          "type": "uint256"
        },
        {
          "internalType": "uint256",
          "name": "_answer",
          "type": "uint256"
        }
      ],
      "name": "fundAppeal",
      "outputs": [
        {
          "internalType": "bool",
          "name": "",
          "type": "bool"
        }
      ],
      "stateMutability": "payable",
      "type": "function"
    },
    {
      "inputs": [],
      "name": "fxChildTunnel",
      "outputs": [
        {
          "internalType": "address",
          "name": "",
          "type": "address"
        }
      ],
      "stateMutability": "view",
      "type": "function"
    },
    {
      "inputs": [],
      "name": "fxRoot",
      "outputs": [
        {
          "internalType": "contract IFxStateSender",
          "name": "",
          "type": "address"
        }
      ],
      "stateMutability": "view",
      "type": "function"
    },
    {
      "inputs": [
        {
          "internalType": "uint256",
          "name": "_arbitrationID",
          "type": "uint256"
        },
        {
          "internalType": "uint256",
          "name": "_round",
          "type": "uint256"
        },
        {
          "internalType": "address",
          "name": "_contributor",
          "type": "address"
        }
      ],
      "name": "getContributionsToSuccessfulFundings",
      "outputs": [
        {
          "internalType": "uint256[]",
          "name": "fundedAnswers",
          "type": "uint256[]"
        },
        {
          "internalType": "uint256[]",
          "name": "contributions",
          "type": "uint256[]"
        }
      ],
      "stateMutability": "view",
      "type": "function"
    },
    {
      "inputs": [
        {
          "internalType": "bytes32",
          "name": "",
          "type": "bytes32"
        }
      ],
      "name": "getDisputeFee",
      "outputs": [
        {
          "internalType": "uint256",
          "name": "",
          "type": "uint256"
        }
      ],
      "stateMutability": "view",
      "type": "function"
    },
    {
      "inputs": [
        {
          "internalType": "uint256",
          "name": "_arbitrationID",
          "type": "uint256"
        },
        {
          "internalType": "uint256",
          "name": "_round",
          "type": "uint256"
        },
        {
          "internalType": "uint256",
          "name": "_answer",
          "type": "uint256"
        }
      ],
      "name": "getFundingStatus",
      "outputs": [
        {
          "internalType": "uint256",
          "name": "raised",
          "type": "uint256"
        },
        {
          "internalType": "bool",
          "name": "fullyFunded",
          "type": "bool"
        }
      ],
      "stateMutability": "view",
      "type": "function"
    },
    {
      "inputs": [],
      "name": "getMultipliers",
      "outputs": [
        {
          "internalType": "uint256",
          "name": "winner",
          "type": "uint256"
        },
        {
          "internalType": "uint256",
          "name": "loser",
          "type": "uint256"
        },
        {
          "internalType": "uint256",
          "name": "loserAppealPeriod",
          "type": "uint256"
        },
        {
          "internalType": "uint256",
          "name": "divisor",
          "type": "uint256"
        }
      ],
      "stateMutability": "view",
      "type": "function"
    },
    {
      "inputs": [
        {
          "internalType": "uint256",
          "name": "_arbitrationID",
          "type": "uint256"
        }
      ],
      "name": "getNumberOfRounds",
      "outputs": [
        {
          "internalType": "uint256",
          "name": "",
          "type": "uint256"
        }
      ],
      "stateMutability": "view",
      "type": "function"
    },
    {
      "inputs": [
        {
          "internalType": "uint256",
          "name": "_arbitrationID",
          "type": "uint256"
        },
        {
          "internalType": "uint256",
          "name": "_round",
          "type": "uint256"
        }
      ],
      "name": "getRoundInfo",
      "outputs": [
        {
          "internalType": "uint256[]",
          "name": "paidFees",
          "type": "uint256[]"
        },
        {
          "internalType": "uint256",
          "name": "feeRewards",
          "type": "uint256"
        },
        {
          "internalType": "uint256[]",
          "name": "fundedAnswers",
          "type": "uint256[]"
        }
      ],
      "stateMutability": "view",
      "type": "function"
    },
    {
      "inputs": [
        {
          "internalType": "uint256",
          "name": "_arbitrationID",
          "type": "uint256"
        },
        {
          "internalType": "address payable",
          "name": "_beneficiary",
          "type": "address"
        },
        {
          "internalType": "uint256",
          "name": "_contributedTo",
          "type": "uint256"
        }
      ],
      "name": "getTotalWithdrawableAmount",
      "outputs": [
        {
          "internalType": "uint256",
          "name": "sum",
          "type": "uint256"
        }
      ],
      "stateMutability": "view",
      "type": "function"
    },
    {
      "inputs": [
        {
          "internalType": "bytes32",
          "name": "_questionID",
          "type": "bytes32"
        },
        {
          "internalType": "address",
          "name": "_requester",
          "type": "address"
        }
      ],
      "name": "handleFailedDisputeCreation",
      "outputs": [],
      "stateMutability": "nonpayable",
      "type": "function"
    },
    {
      "inputs": [],
      "name": "loserAppealPeriodMultiplier",
      "outputs": [
        {
          "internalType": "uint256",
          "name": "",
          "type": "uint256"
        }
      ],
      "stateMutability": "view",
      "type": "function"
    },
    {
      "inputs": [],
      "name": "loserMultiplier",
      "outputs": [
        {
          "internalType": "uint256",
          "name": "",
          "type": "uint256"
        }
      ],
      "stateMutability": "view",
      "type": "function"
    },
    {
      "inputs": [
        {
          "internalType": "uint256",
          "name": "",
          "type": "uint256"
        }
      ],
      "name": "numberOfRulingOptions",
      "outputs": [
        {
          "internalType": "uint256",
          "name": "",
          "type": "uint256"
        }
      ],
      "stateMutability": "pure",
      "type": "function"
    },
    {
      "inputs": [
        {
          "internalType": "bytes32",
          "name": "",
          "type": "bytes32"
        }
      ],
      "name": "processedExits",
      "outputs": [
        {
          "internalType": "bool",
          "name": "",
          "type": "bool"
        }
      ],
      "stateMutability": "view",
      "type": "function"
    },
    {
      "inputs": [
        {
          "internalType": "bytes32",
          "name": "_questionID",
          "type": "bytes32"
        }
      ],
      "name": "questionIDToArbitrationID",
      "outputs": [
        {
          "internalType": "uint256",
          "name": "",
          "type": "uint256"
        }
      ],
      "stateMutability": "pure",
      "type": "function"
    },
    {
      "inputs": [
        {
          "internalType": "bytes32",
          "name": "_questionID",
          "type": "bytes32"
        },
        {
          "internalType": "address",
          "name": "_requester",
          "type": "address"
        }
      ],
      "name": "receiveArbitrationAcknowledgement",
      "outputs": [],
      "stateMutability": "nonpayable",
      "type": "function"
    },
    {
      "inputs": [
        {
          "internalType": "bytes32",
          "name": "_questionID",
          "type": "bytes32"
        },
        {
          "internalType": "address",
          "name": "_requester",
          "type": "address"
        }
      ],
      "name": "receiveArbitrationCancelation",
      "outputs": [],
      "stateMutability": "nonpayable",
      "type": "function"
    },
    {
      "inputs": [
        {
          "internalType": "bytes",
          "name": "inputData",
          "type": "bytes"
        }
      ],
      "name": "receiveMessage",
      "outputs": [],
      "stateMutability": "nonpayable",
      "type": "function"
    },
    {
      "inputs": [
        {
          "internalType": "bytes32",
          "name": "_questionID",
          "type": "bytes32"
        },
        {
          "internalType": "uint256",
          "name": "_maxPrevious",
          "type": "uint256"
        }
      ],
      "name": "requestArbitration",
      "outputs": [],
      "stateMutability": "payable",
      "type": "function"
    },
    {
      "inputs": [
        {
          "internalType": "uint256",
          "name": "_disputeID",
          "type": "uint256"
        },
        {
          "internalType": "uint256",
          "name": "_ruling",
          "type": "uint256"
        }
      ],
      "name": "rule",
      "outputs": [],
      "stateMutability": "nonpayable",
      "type": "function"
    },
    {
      "inputs": [
        {
          "internalType": "address",
          "name": "_fxChildTunnel",
          "type": "address"
        }
      ],
      "name": "setFxChildTunnel",
      "outputs": [],
      "stateMutability": "nonpayable",
      "type": "function"
    },
    {
      "inputs": [
        {
          "internalType": "uint256",
          "name": "_arbitrationID",
          "type": "uint256"
        },
        {
          "internalType": "string",
          "name": "_evidenceURI",
          "type": "string"
        }
      ],
      "name": "submitEvidence",
      "outputs": [],
      "stateMutability": "nonpayable",
      "type": "function"
    },
    {
      "inputs": [],
      "name": "termsOfService",
      "outputs": [
        {
          "internalType": "string",
          "name": "",
          "type": "string"
        }
      ],
      "stateMutability": "view",
      "type": "function"
    },
    {
      "inputs": [],
      "name": "winnerMultiplier",
      "outputs": [
        {
          "internalType": "uint256",
          "name": "",
          "type": "uint256"
        }
      ],
      "stateMutability": "view",
      "type": "function"
    },
    {
      "inputs": [
        {
          "internalType": "uint256",
          "name": "_arbitrationID",
          "type": "uint256"
        },
        {
          "internalType": "address payable",
          "name": "_beneficiary",
          "type": "address"
        },
        {
          "internalType": "uint256",
          "name": "_round",
          "type": "uint256"
        },
        {
          "internalType": "uint256",
          "name": "_answer",
          "type": "uint256"
        }
      ],
      "name": "withdrawFeesAndRewards",
      "outputs": [
        {
          "internalType": "uint256",
          "name": "reward",
          "type": "uint256"
        }
      ],
      "stateMutability": "nonpayable",
      "type": "function"
    },
    {
      "inputs": [
        {
          "internalType": "uint256",
          "name": "_arbitrationID",
          "type": "uint256"
        },
        {
          "internalType": "address payable",
          "name": "_beneficiary",
          "type": "address"
        },
        {
          "internalType": "uint256",
          "name": "_contributedTo",
          "type": "uint256"
        }
      ],
      "name": "withdrawFeesAndRewardsForAllRounds",
      "outputs": [],
      "stateMutability": "nonpayable",
      "type": "function"
    }
  ],
  "transactionHash": "0x5447c40ca23f546b7732b391687cae3064224e7845d401488773239a95926a20",
  "args": [
    "0x2890bA17EfE978480615e330ecB65333b880928e",
    "0x3d1d3E34f7fB6D26245E6640E1c50710eFFf15bA",
    "0x1128eD55ab2d796fa92D2F8E1f336d745354a77A",
    "0x00000000000000000000000000000000000000000000000000000000000000000000000000000000000000000000000000000000000000000000000000000000",
    "/ipfs/Qmcg1JYNqtuVJUbVk79DuFwWaZwzduiwndoURJa37kZZ2F/realitio.json",
    "/ipfs/QmaUr6hnSVxYD899xdcn2GUVtXVjXoSXKZbce3zFtGWw4H/Question_Resolution_Policy.pdf",
    3000,
    7000,
    5000
  ],
  "solcInputHash": "738061f36660cbff363629b7a9de313d",
  "bytecode": "0x6101006040523480156200001257600080fd5b506040516200515f3803806200515f83398101604081905262000035916200024a565b600180546001600160a01b03808c166001600160a01b03199283161790925560008054928b16929091169190911790556001600160601b0319606088901b1660805285516200008c906004906020890190620000fe565b508351620000a2906005906020870190620000fe565b5060a083905260c082905260e08190526040516000907f61606860eb6c87306811e2695215385101daab53bd6ab4e9f9049aead9363c7d90620000e79088906200032e565b60405180910390a2505050505050505050620003e9565b8280546200010c9062000396565b90600052602060002090601f0160209004810192826200013057600085556200017b565b82601f106200014b57805160ff19168380011785556200017b565b828001600101855582156200017b579182015b828111156200017b5782518255916020019190600101906200015e565b50620001899291506200018d565b5090565b5b808211156200018957600081556001016200018e565b80516001600160a01b0381168114620001bc57600080fd5b919050565b600082601f830112620001d2578081fd5b81516001600160401b0380821115620001ef57620001ef620003d3565b604051601f8301601f191681016020018281118282101715620002165762000216620003d3565b6040528281528483016020018610156200022e578384fd5b6200024183602083016020880162000363565b95945050505050565b60008060008060008060008060006101208a8c03121562000269578485fd5b620002748a620001a4565b98506200028460208b01620001a4565b97506200029460408b01620001a4565b60608b01519097506001600160401b0380821115620002b1578687fd5b620002bf8d838e01620001c1565b975060808c0151915080821115620002d5578687fd5b620002e38d838e01620001c1565b965060a08c0151915080821115620002f9578586fd5b50620003088c828d01620001c1565b94505060c08a0151925060e08a015191506101008a015190509295985092959850929598565b60006020825282518060208401526200034f81604085016020870162000363565b601f01601f19169190910160400192915050565b60005b838110156200038057818101518382015260200162000366565b8381111562000390576000848401525b50505050565b600281046001821680620003ab57607f821691505b60208210811415620003cd57634e487b7160e01b600052602260045260246000fd5b50919050565b634e487b7160e01b600052604160045260246000fd5b60805160601c60a05160c05160e051614cbb620004a460003960008181610726015281816110e5015261161a015260008181611147015281816115f901526118060152600081816110b7015281816115d80152611839015260008181610849015281816109eb01528181610f5901528181611011015281816112020152818161149d01528181611599015281816118750152818161190701528181611a11015281816120550152818161210a01526122e50152614cbb6000f3fe6080604052600436106102465760003560e01c80639b3ac99811610139578063c21ae061116100b6578063ec85635b1161007a578063ec85635b1461065f578063edabc4741461067f578063f953cec7146106af578063fc6f8f16146106cf578063fe2dddeb146106ef578063ffa1ad741461070f57610246565b8063c21ae061146105c7578063c599c66f146105e7578063d661dd3114610615578063de9b771f1461062a578063e742e2ed1461063f57610246565b8063bb163782116100fd578063bb16378214610516578063bb2fe65f14610536578063bde80ca714610564578063be26fc8814610592578063c0857ba0146105b257610246565b80639b3ac9981461048e578063a22352e2146104a3578063a6a7f0eb146104c3578063a829c3d1146104e3578063aea4e49e146104f657610246565b8063607f2d42116101c75780637a7104911161018b5780637a710491146102ad5780638a9bb02a146104155780638d8b2d7e14610444578063965394ab14610464578063972c49281461047957610246565b8063607f2d421461036e57806368cb30f51461038e5780636cc6cde1146103ae578063756804c0146103d057806379873f8a146103f057610246565b8063311a6c561161020e578063311a6c56146102d7578063362c3479146102f95780634aa6a1e4146103195780634b2f0ea01461033957806354dba90f1461035957610246565b80630c139eb41461024b5780630c7ac7b6146102765780630e387de6146102985780630fa8c7ce146102ad5780631e117f49146102c2575b600080fd5b34801561025757600080fd5b50610260610724565b60405161026d9190614408565b60405180910390f35b34801561028257600080fd5b5061028b610748565b60405161026d9190614447565b3480156102a457600080fd5b506102606107d6565b3480156102b957600080fd5b506102606107fa565b3480156102ce57600080fd5b5061028b610800565b3480156102e357600080fd5b506102f76102f2366004613f02565b61080d565b005b34801561030557600080fd5b506102606103143660046140ba565b610a57565b34801561032557600080fd5b506102f7610334366004613ed3565b610d4e565b61034c610347366004613f02565b610ecc565b60405161026d91906143fd565b34801561036557600080fd5b50610260611568565b34801561037a57600080fd5b5061034c610389366004613ebb565b61156d565b34801561039a57600080fd5b5061034c6103a9366004613ebb565b611582565b3480156103ba57600080fd5b506103c3611597565b60405161026d919061436b565b3480156103dc57600080fd5b506103c36103eb366004613ebb565b6115bb565b3480156103fc57600080fd5b506104056115d6565b60405161026d9493929190614350565b34801561042157600080fd5b50610435610430366004613f02565b611642565b60405161026d939291906143c8565b34801561045057600080fd5b5061026061045f366004613ebb565b6117fb565b34801561047057600080fd5b50610260611804565b34801561048557600080fd5b506103c3611828565b34801561049a57600080fd5b50610260611837565b3480156104af57600080fd5b506102606104be366004613ebb565b61185b565b3480156104cf57600080fd5b506102f76104de3660046140f6565b6118fa565b6102f76104f1366004613f02565b61196d565b34801561050257600080fd5b506102f7610511366004613e9f565b611b81565b34801561052257600080fd5b50610260610531366004613ebb565b611bcc565b34801561054257600080fd5b506105566105513660046141c7565b611bcf565b60405161026d929190614938565b34801561057057600080fd5b5061058461057f366004613ebb565b611c61565b60405161026d929190614411565b34801561059e57600080fd5b506102f76105ad366004613ed3565b611c83565b3480156105be57600080fd5b506103c3611dc0565b3480156105d357600080fd5b506102606105e2366004613ebb565b611dcf565b3480156105f357600080fd5b5061060761060236600461418f565b611de1565b60405161026d9291906143a3565b34801561062157600080fd5b50610260611fa0565b34801561063657600080fd5b506103c3611fa6565b34801561064b57600080fd5b506102f761065a366004613ed3565b611fb5565b34801561066b57600080fd5b5061026061067a366004614083565b612399565b34801561068b57600080fd5b5061069f61069a366004614071565b612629565b60405161026d949392919061446d565b3480156106bb57600080fd5b506102f76106ca366004613f6f565b612668565b3480156106db57600080fd5b506102606106ea366004613ebb565b612682565b3480156106fb57600080fd5b506102f761070a366004614083565b6126b4565b34801561071b57600080fd5b5061028b61271a565b7f000000000000000000000000000000000000000000000000000000000000000081565b6004805461075590614ba8565b80601f016020809104026020016040519081016040528092919081815260200182805461078190614ba8565b80156107ce5780601f106107a3576101008083540402835291602001916107ce565b820191906000526020600020905b8154815290600101906020018083116107b157829003601f168201915b505050505081565b7f8c5261668696ce22758910d05bab8f186d6eb247ceac2af2e82c7dc17669b03681565b60001981565b6005805461075590614ba8565b600082815260076020908152604080832080546001820154818652600685528386206001600160a01b03918216808852955292909420909392917f00000000000000000000000000000000000000000000000000000000000000001633146108905760405162461bcd60e51b81526004016108879061451a565b60405180910390fd5b6002815460ff1660048111156108b657634e487b7160e01b600052602160045260246000fd5b146108d35760405162461bcd60e51b8152600401610887906148ca565b60038101805486916000918291906108ed90600190614b3e565b8154811061090b57634e487b7160e01b600052603260045260246000fd5b9060005260206000209060050201905080600401805490506001141561095d578060040160008154811061094f57634e487b7160e01b600052603260045260246000fd5b906000526020600020015492505b60028401839055835460ff191660031784558261097c57600019610987565b610987600184614b3e565b6040519092506306bad43760e51b9060009082906109ab908a9087906024016142f9565b60408051601f198184030181529190526020810180516001600160e01b03166001600160e01b03199093169290921790915290506109e88161273b565b8a7f00000000000000000000000000000000000000000000000000000000000000006001600160a01b03167f394027a5fa6e098a1191094d1719d6929b9abc535fcc0c8f448d6a4e7562227687604051610a429190614408565b60405180910390a35050505050505050505050565b600084815260096020908152604080832054600683528184206001600160a01b039091168085529252822060038101805484919087908110610aa957634e487b7160e01b600052603260045260246000fd5b6000918252602090912060059091020190506003825460ff166004811115610ae157634e487b7160e01b600052602160045260246000fd5b14610afe5760405162461bcd60e51b815260040161088790614690565b600085815260018201602052604090205460ff16610b43576001600160a01b038716600090815260028201602090815260408083208884529091529020549350610cb6565b6002820154600090815260018201602052604090205460ff16610c4b576004810154600110610b73576000610c44565b80600001600082600401600181548110610b9d57634e487b7160e01b600052603260045260246000fd5b906000526020600020015481526020019081526020016000205481600001600083600401600081548110610be157634e487b7160e01b600052603260045260246000fd5b9060005260206000200154815260200190815260200160002054610c0591906149bd565b60038201546001600160a01b038916600090815260028401602090815260408083208a8452909152902054610c3a9190614b1f565b610c4491906149d5565b9350610cb6565b8482600201541415610cb65760008581526020829052604090205480610c72576000610cb2565b60038201546001600160a01b038916600090815260028401602090815260408083208a84529091529020548291610ca891614b1f565b610cb291906149d5565b9450505b8315610d43576001600160a01b038716600081815260028301602090815260408083208984529091528082208290555186156108fc0291879190818181858888f1935050505050866001600160a01b031686897f54b3cab3cb5c4aca3209db1151caff092e878011202e43a36782d4ebe0b963ae8888604051610d3a9291906142f9565b60405180910390a45b505050949350505050565b60008281526006602090815260408083206001600160a01b0385168452909152902082906004815460ff166004811115610d9857634e487b7160e01b600052602160045260246000fd5b14610db55760405162461bcd60e51b8152600401610887906148ca565b805460008381526006602090815260408083206001600160a01b0388168452909152812081815560018101829055600281018290556101009092046001600160f81b03169190610e086003830182613db4565b50506040516001600160a01b0385169082156108fc029083906000818181858888f150506040516305fb2b4f60e51b935060009250839150610e509089908990602401614411565b60408051601f198184030181529190526020810180516001600160e01b03166001600160e01b0319909316929092179091529050610e8d8161273b565b6040516001600160a01b0387169088907fe7700735be0b02f71ef1d623678daf36cd936af4c349a22ad9d5a8b217df0dd990600090a350505050505050565b600082815260066020908152604080832060098352818420546001600160a01b0316845290915281206002815460ff166004811115610f1b57634e487b7160e01b600052602160045260246000fd5b14610f385760405162461bcd60e51b8152600401610887906146ed565b600181015460405163afe15cfb60e01b815260009081906001600160a01b037f0000000000000000000000000000000000000000000000000000000000000000169063afe15cfb90610f8e908690600401614408565b604080518083038186803b158015610fa557600080fd5b505afa158015610fb9573d6000803e3d6000fd5b505050506040513d601f19601f82011682018060405250810190610fdd919061416c565b91509150814210158015610ff057508042105b61100c5760405162461bcd60e51b8152600401610887906147e7565b6000807f00000000000000000000000000000000000000000000000000000000000000006001600160a01b0316631c3db16d866040518263ffffffff1660e01b815260040161105b9190614408565b60206040518083038186803b15801561107357600080fd5b505afa158015611087573d6000803e3d6000fd5b505050506040513d601f19601f820116820180604052508101906110ab9190614059565b9050878114156110dd577f00000000000000000000000000000000000000000000000000000000000000009150611169565b6127106111147f000000000000000000000000000000000000000000000000000000000000000061110e8787614b3e565b9061279f565b61111e91906149d5565b6111288542614b3e565b106111455760405162461bcd60e51b81526004016108879061485c565b7f000000000000000000000000000000000000000000000000000000000000000091505b50600385015460009061117e90600190614b3e565b905060008660030182815481106111a557634e487b7160e01b600052603260045260246000fd5b600091825260208083208c84526001600590930201918201905260409091205490915060ff16156111e85760405162461bcd60e51b815260040161088790614893565b60405163791f8b7360e11b81526000906001600160a01b037f0000000000000000000000000000000000000000000000000000000000000000169063f23f16e690611239908a906004908101614948565b60206040518083038186803b15801561125157600080fd5b505afa158015611265573d6000803e3d6000fd5b505050506040513d601f19601f820116820180604052508101906112899190614059565b905060006112ae61271061129d848861279f565b6112a791906149d5565b83906127de565b60008c8152602085905260408120549192509034906112ce9084906127fd565b116112f25760008c8152602085905260409020546112ed9083906127fd565b6112f4565b345b9050336001600160a01b0316858e7fcae597f39a3ad75c2e10d46b031f023c5c2babcd58ca0491b122acda3968d4c08f856040516113339291906142f9565b60405180910390a433600090815260028501602090815260408083208f8452909152812080548392906113679084906149bd565b909155505060008c8152602085905260408120805483929061138a9084906149bd565b909155505060008c81526020859052604090205482116114585760008c815260208590526040812054600386018054919290916113c89084906149bd565b92505081905550836004018c908060018154018082558091505060019003906000526020600020016000909190919091505560018460010160008e815260200190815260200160002060006101000a81548160ff0219169083151502179055508b858e7f39493c1b78d9a13bcc9e1d532fc7faed3889248d93affa811416ce3c6bcb1a6860405160405180910390a45b600484015460011015611509576003808b018054600101815560005284015461148190846127fd565b600385015560405163093225f160e31b81526001600160a01b037f000000000000000000000000000000000000000000000000000000000000000016906349912f889085906114d6908d906004908101614948565b6000604051808303818588803b1580156114ef57600080fd5b505af1158015611503573d6000803e3d6000fd5b50505050505b600061151534836127fd565b111561154157336108fc61152934846127fd565b6040518115909202916000818181858888f150505050505b50505060008981526001909101602052604090205460ff1696505050505050505b92915050565b600081565b60036020526000908152604090205460ff1681565b60086020526000908152604090205460ff1681565b7f000000000000000000000000000000000000000000000000000000000000000081565b6009602052600090815260409020546001600160a01b031681565b7f00000000000000000000000000000000000000000000000000000000000000007f00000000000000000000000000000000000000000000000000000000000000007f000000000000000000000000000000000000000000000000000000000000000061271090919293565b600082815260096020908152604080832054600683528184206001600160a01b0390911680855292528220600381018054606094938593909290918591908890811061169e57634e487b7160e01b600052603260045260246000fd5b90600052602060002090600502019050806004018054806020026020016040519081016040528092919081815260200182805480156116fc57602002820191906000526020600020905b8154815260200190600101908083116116e8575b505050600484015492965050506001600160401b0381111561172e57634e487b7160e01b600052604160045260246000fd5b604051908082528060200260200182016040528015611757578160200160208202803683370190505b50955060005b60048201548110156117e95781600001600083600401838154811061179257634e487b7160e01b600052603260045260246000fd5b90600052602060002001548152602001908152602001600020548782815181106117cc57634e487b7160e01b600052603260045260246000fd5b6020908102919091010152806117e181614bdd565b91505061175d565b50806003015494505050509250925092565b6000195b919050565b7f000000000000000000000000000000000000000000000000000000000000000081565b6002546001600160a01b031681565b7f000000000000000000000000000000000000000000000000000000000000000081565b60405163f7434ea960e01b81526000906001600160a01b037f0000000000000000000000000000000000000000000000000000000000000000169063f7434ea9906118aa90600490810161445a565b60206040518083038186803b1580156118c257600080fd5b505afa1580156118d6573d6000803e3d6000fd5b505050506040513d601f19601f820116820180604052508101906115629190614059565b336001600160a01b0316837f00000000000000000000000000000000000000000000000000000000000000006001600160a01b03167fdccf2f8b2cc26eafcd61905cba744cff4b81d14740725f6376390dc6298a6a3c85856040516119609291906144b4565b60405180910390a4505050565b60008281526008602052604090205460ff161561199c5760405162461bcd60e51b8152600401610887906144e3565b6000828152600660209081526040808320338452909152812090815460ff1660048111156119da57634e487b7160e01b600052602160045260246000fd5b146119f75760405162461bcd60e51b815260040161088790614659565b60405163f7434ea960e01b81526000906001600160a01b037f0000000000000000000000000000000000000000000000000000000000000000169063f7434ea990611a4690600490810161445a565b60206040518083038186803b158015611a5e57600080fd5b505afa158015611a72573d6000803e3d6000fd5b505050506040513d601f19601f82011682018060405250810190611a969190614059565b905080341015611ab85760405162461bcd60e51b8152600401610887906146be565b8154600160ff199091161760ff16610100346001600160f81b03160217825560405163666b746960e11b906000908290611afa90889033908990602401614428565b60408051601f198184030181529190526020810180516001600160e01b03166001600160e01b0319909316929092179091529050611b378161273b565b336001600160a01b0316867f2067d1b3170fe803dd001b95b04f9d372eb9c3e5a48ed131a62962a7300bdb2087604051611b719190614408565b60405180910390a3505050505050565b6002546001600160a01b031615611baa5760405162461bcd60e51b815260040161088790614588565b600280546001600160a01b0319166001600160a01b0392909216919091179055565b90565b600083815260096020908152604080832054600683528184206001600160a01b039091168085529252822060038101805484939291849188908110611c2457634e487b7160e01b600052603260045260246000fd5b600091825260208083209883526005909102909701808852604080832054600190920190985296902054959860ff90961697509495505050505050565b600760205260009081526040902080546001909101546001600160a01b031682565b333014611ca25760405162461bcd60e51b815260040161088790614901565b60008281526006602090815260408083206001600160a01b0385168452909152902082906001815460ff166004811115611cec57634e487b7160e01b600052602160045260246000fd5b14611d095760405162461bcd60e51b8152600401610887906148ca565b805460008381526006602090815260408083206001600160a01b0388168452909152812081815560018101829055600281018290556101009092046001600160f81b03169190611d5c6003830182613db4565b50506040516001600160a01b0385169082156108fc029083906000818181858888f150506040516001600160a01b03881693508892507fe7700735be0b02f71ef1d623678daf36cd936af4c349a22ad9d5a8b217df0dd99150600090a35050505050565b6001546001600160a01b031681565b60009081526007602052604090205490565b600083815260096020908152604080832054600683528184206001600160a01b039091168085529252822060038101805460609485949392909188908110611e3957634e487b7160e01b600052603260045260246000fd5b9060005260206000209060050201905080600401805480602002602001604051908101604052809291908181526020018280548015611e9757602002820191906000526020600020905b815481526020019060010190808311611e83575b505050600484015492975050506001600160401b03811115611ec957634e487b7160e01b600052604160045260246000fd5b604051908082528060200260200182016040528015611ef2578160200160208202803683370190505b50935060005b8451811015611f94576001600160a01b038716600090815260028301602052604081208751909190889084908110611f4057634e487b7160e01b600052603260045260246000fd5b6020026020010151815260200190815260200160002054858281518110611f7757634e487b7160e01b600052603260045260246000fd5b602090810291909101015280611f8c81614bdd565b915050611ef8565b50505050935093915050565b61271081565b6000546001600160a01b031681565b333014611fd45760405162461bcd60e51b815260040161088790614901565b60008281526006602090815260408083206001600160a01b0385168452909152902082906001815460ff16600481111561201e57634e487b7160e01b600052602160045260246000fd5b1461203b5760405162461bcd60e51b8152600401610887906148ca565b60405163f7434ea960e01b81526000906001600160a01b037f0000000000000000000000000000000000000000000000000000000000000000169063f7434ea99061208a90600490810161445a565b60206040518083038186803b1580156120a257600080fd5b505afa1580156120b6573d6000803e3d6000fd5b505050506040513d601f19601f820116820180604052508101906120da9190614059565b825490915061010090046001600160f81b031681116123505760405163c13517e160e01b81526001600160a01b037f0000000000000000000000000000000000000000000000000000000000000000169063c13517e190839061214590600019906004908101614948565b6020604051808303818588803b15801561215e57600080fd5b505af19350505050801561218f575060408051601f3d908101601f1916820190925261218c91810190614059565b60015b6121d957815460ff191660041782556040516001600160a01b0385169086907f9beda0c81abc1c65da7685f113195974dfddb781dfde6263e5a1b13a5356ffad90600090a361234b565b6000818152600760209081526040808320878155600180820180546001600160a01b038c166001600160a01b031991821681179092558a875260088652848720805460ff191690931790925560099094529184208054909216909217905584549091906122569085906001600160f81b0361010090910416614b3e565b855460ff60ff1990911660021716865560018087018590556003870180549091018155600052905080156122aa576040516001600160a01b0388169082156108fc029083906000818181858888f150505050505b82876001600160a01b0316897fcf9bcbc2efae51060af73ef64119281007f63eada739f19c41c181d8350fa81460405160405180910390a4827f00000000000000000000000000000000000000000000000000000000000000006001600160a01b03167f74baab670a4015ab2f1b467c5252a96141a2573f2908e58a92081e80d3cfde3d60008960405161233f9291906142f9565b60405180910390a35050505b612392565b815460ff191660041782556040516001600160a01b0385169086907f9beda0c81abc1c65da7685f113195974dfddb781dfde6263e5a1b13a5356ffad90600090a35b5050505050565b600083815260096020908152604080832054600683528184206001600160a01b03909116808552925282206003815460ff1660048111156123ea57634e487b7160e01b600052602160045260246000fd5b10156123f7575050612622565b6002810154600382015460005b8181101561261c57600084600301828154811061243157634e487b7160e01b600052603260045260246000fd5b600091825260208083208b84526001600590930201918201905260409091205490915060ff16612492576001600160a01b038916600090815260028201602090815260408083208b845290915290205461248b90886149bd565b9650612609565b600084815260018201602052604090205460ff166125985760048101546001106124bd57600061258e565b806000016000826004016001815481106124e757634e487b7160e01b600052603260045260246000fd5b90600052602060002001548152602001908152602001600020548160000160008360040160008154811061252b57634e487b7160e01b600052603260045260246000fd5b906000526020600020015481526020019081526020016000205461254f91906149bd565b60038201546001600160a01b038b16600090815260028401602090815260408083208d84529091529020546125849190614b1f565b61258e91906149d5565b61248b90886149bd565b8784141561260957600088815260208290526040902054806125bb5760006125fb565b60038201546001600160a01b038b16600090815260028401602090815260408083208d845290915290205482916125f191614b1f565b6125fb91906149d5565b61260590896149bd565b9750505b508061261481614bdd565b915050612404565b50505050505b9392505050565b600660209081526000928352604080842090915290825290208054600182015460029092015460ff8216926101009092046001600160f81b0316919084565b600061267382612820565b905061267e81612a1e565b5050565b600090815260096020908152604080832054600683528184206001600160a01b03909116845290915290206003015490565b600083815260096020908152604080832054600683528184206001600160a01b0390911680855292528220600381015491929091905b81811015612711576126fe87878388610a57565b508061270981614bdd565b9150506126ea565b50505050505050565b604051806040016040528060058152602001640322e302e360dc1b81525081565b60005460025460405163b472047760e01b81526001600160a01b039283169263b47204779261277192911690859060040161437f565b600060405180830381600087803b15801561278b57600080fd5b505af1158015612392573d6000803e3d6000fd5b6000826127ae57506000611562565b60006127ba8385614b1f565b9050826127c785836149d5565b146127d4576000196127d6565b805b949350505050565b6000806127eb83856149bd565b9050838110156127d4576000196127d6565b60008282111561280f57506000611562565b6128198284614b3e565b9050611562565b6060600061282d83612a9b565b9050600061283a82612acb565b9050600061284783612b02565b905060008161285584612b39565b61285e86612d2d565b60405160200161287093929190614323565b60408051601f1981840301815291815281516020928301206000818152600390935291205490915060ff16156128b85760405162461bcd60e51b815260040161088790614615565b6000818152600360205260408120805460ff191660011790556128da85612d57565b905060006128e782612e64565b90506128f281612ef3565b6002546001600160a01b0390811691161461291f5760405162461bcd60e51b815260040161088790614817565b600061292a87612f2a565b905061294861293884612f54565b876129428a612f5b565b84612f85565b6129645760405162461bcd60e51b8152600401610887906145d2565b6129928561297189613283565b61297a8a6132ad565b846129848c6132d7565b61298d8d613301565b61332b565b50600061299e83613433565b90507f8c5261668696ce22758910d05bab8f186d6eb247ceac2af2e82c7dc17669b0366129d46129cf836000613476565b6134b0565b146129f15760405162461bcd60e51b8152600401610887906147b0565b60006129fc8461352b565b806020019051810190612a0f9190613fe7565b9b9a5050505050505050505050565b6000306001600160a01b031682604051612a389190614307565b6000604051808303816000865af19150503d8060008114612a75576040519150601f19603f3d011682016040523d82523d6000602084013e612a7a565b606091505b505090508061267e5760405162461bcd60e51b815260040161088790614551565b612aa3613dd8565b6000612ab6612ab184613555565b61357a565b60408051602081019091529081529392505050565b60606115628260000151600881518110612af557634e487b7160e01b600052603260045260246000fd5b602002602001015161369f565b60006115628260000151600281518110612b2c57634e487b7160e01b600052603260045260246000fd5b60200260200101516134b0565b6040805160208101909152600081528151606091901561156257600080612b61600086613749565b60f81c90506001811480612b7857508060ff166003145b15612c3b57600185516002612b8d9190614b1f565b612b979190614b3e565b6001600160401b03811115612bbc57634e487b7160e01b600052604160045260246000fd5b6040519080825280601f01601f191660200182016040528015612be6576020820181803683370190505b5092506000612bf6600187613749565b90508084600081518110612c1a57634e487b7160e01b600052603260045260246000fd5b60200101906001600160f81b031916908160001a9053506001925050612cac565b600285516002612c4b9190614b1f565b612c559190614b3e565b6001600160401b03811115612c7a57634e487b7160e01b600052604160045260246000fd5b6040519080825280601f01601f191660200182016040528015612ca4576020820181803683370190505b509250600091505b60ff82165b8351811015612d2457612cdb612cca60ff851683614b3e565b612cd59060026149bd565b87613749565b848281518110612cfb57634e487b7160e01b600052603260045260246000fd5b60200101906001600160f81b031916908160001a90535080612d1c81614bdd565b915050612cb1565b50505092915050565b60006115628260000151600981518110612b2c57634e487b7160e01b600052603260045260246000fd5b612d5f613deb565b612d878260000151600681518110612af557634e487b7160e01b600052603260045260246000fd5b60208201819052600090612d9a90613555565b9050612da5816137e6565b15612dba57612db38161357a565b8252612e50565b60208201518051600090612dd090600190614b3e565b6001600160401b03811115612df557634e487b7160e01b600052604160045260246000fd5b6040519080825280601f01601f191660200182016040528015612e1f576020820181803683370190505b509050600080836021019150826020019050612e3d82828551613820565b612e49612ab184613555565b8652505050505b612e5983612d2d565b604083015250919050565b612e6c613e0c565b6000612ea38360000151600381518110612e9657634e487b7160e01b600052603260045260246000fd5b602002602001015161357a565b836040015181518110612ec657634e487b7160e01b600052603260045260246000fd5b602002602001015190506040518060400160405280828152602001612eea8361357a565b90529392505050565b60006115628260200151600081518110612f1d57634e487b7160e01b600052603260045260246000fd5b602002602001015161389a565b60006115628260000151600581518110612b2c57634e487b7160e01b600052603260045260246000fd5b6020015190565b60606115628260000151600781518110612af557634e487b7160e01b600052603260045260246000fd5b600080612f9184613555565b90506000612f9e8261357a565b905060608085600080612fb08b612b39565b9050805160001415612fcc5760009750505050505050506127d6565b60005b8651811015613273578151831115612ff2576000985050505050505050506127d6565b61302287828151811061301557634e487b7160e01b600052603260045260246000fd5b60200260200101516138b4565b955085805190602001208414613043576000985050505050505050506127d6565b613066878281518110612e9657634e487b7160e01b600052603260045260246000fd5b94508451601114156131655781518314156130d6578c805190602001206130a786601081518110612af557634e487b7160e01b600052603260045260246000fd5b8051906020012014156130c5576001985050505050505050506127d6565b6000985050505050505050506127d6565b60008284815181106130f857634e487b7160e01b600052603260045260246000fd5b016020015160f81c9050601081111561311d57600099505050505050505050506127d6565b613150868260ff168151811061314357634e487b7160e01b600052603260045260246000fd5b6020026020010151613942565b945061315d6001856149bd565b935050613261565b8451600214156130c557600061319f61319887600081518110612af557634e487b7160e01b600052603260045260246000fd5b8486613970565b83519091506131ae82866149bd565b1415613211578d805190602001206131e087600181518110612af557634e487b7160e01b600052603260045260246000fd5b8051906020012014156131ff57600199505050505050505050506127d6565b600099505050505050505050506127d6565b8061322857600099505050505050505050506127d6565b61323281856149bd565b93506132588660018151811061314357634e487b7160e01b600052603260045260246000fd5b94506132619050565b8061326b81614bdd565b915050612fcf565b5050505050505050949350505050565b60006115628260000151600381518110612b2c57634e487b7160e01b600052603260045260246000fd5b60006115628260000151600481518110612b2c57634e487b7160e01b600052603260045260246000fd5b60006115628260000151600081518110612b2c57634e487b7160e01b600052603260045260246000fd5b60606115628260000151600181518110612af557634e487b7160e01b600052603260045260246000fd5b6001546040516320a9cea560e11b81526000918291829182916001600160a01b03909116906341539d4a90613364908990600401614408565b60a06040518083038186803b15801561337c57600080fd5b505afa158015613390573d6000803e3d6000fd5b505050506040513d601f19601f820116820180604052508101906133b49190613f23565b509350509250925061340a828b6133cb9190614b3e565b84878d8d8d8d6040516020016133e49493929190614350565b60405160208183030381529060405280519060200120613aa2909392919063ffffffff16565b6134265760405162461bcd60e51b815260040161088790614779565b9998505050505050505050565b61343b613dd8565b604051806020016040528061346e8460200151600181518110612e9657634e487b7160e01b600052603260045260246000fd5b905292915050565b61347e613e2c565b82518051839081106134a057634e487b7160e01b600052603260045260246000fd5b6020026020010151905092915050565b8051600090158015906134c557508151602110155b6134ce57600080fd5b60006134dd8360200151613bb6565b905060008184600001516134f19190614b3e565b905060008083866020015161350691906149bd565b905080519150602083101561352257826020036101000a820491505b50949350505050565b60606115628260200151600281518110612af557634e487b7160e01b600052603260045260246000fd5b61355d613e2c565b506040805180820190915281518152602082810190820152919050565b6060613585826137e6565b61358e57600080fd5b600061359983613c41565b90506000816001600160401b038111156135c357634e487b7160e01b600052604160045260246000fd5b6040519080825280602002602001820160405280156135fc57816020015b6135e9613e2c565b8152602001906001900390816135e15790505b509050600061360e8560200151613bb6565b856020015161361d91906149bd565b90506000805b848110156136945761363483613cc4565b915060405180604001604052808381526020018481525084828151811061366b57634e487b7160e01b600052603260045260246000fd5b602090810291909101015261368082846149bd565b92508061368c81614bdd565b915050613623565b509195945050505050565b80516060906136ad57600080fd5b60006136bc8360200151613bb6565b905060008184600001516136d09190614b3e565b90506000816001600160401b038111156136fa57634e487b7160e01b600052604160045260246000fd5b6040519080825280601f01601f191660200182016040528015613724576020820181803683370190505b509050600081602001905061352284876020015161374291906149bd565b8285613d68565b6000613756600284614bf8565b1561379e576010826137696002866149d5565b8151811061378757634e487b7160e01b600052603260045260246000fd5b0160200151613799919060f81c614c0c565b6137dc565b6010826137ac6002866149d5565b815181106137ca57634e487b7160e01b600052603260045260246000fd5b01602001516137dc919060f81c6149e9565b60f81b9392505050565b80516000906137f7575060006117ff565b6020820151805160001a9060c0821015613816576000925050506117ff565b5060019392505050565b8061382a57613895565b6020811061386257825182526138416020846149bd565b925061384e6020836149bd565b915061385b602082614b3e565b905061382a565b60006001613871836020614b3e565b61387d90610100614a51565b6138879190614b3e565b845184518216911916178352505b505050565b80516000906015146138ab57600080fd5b611562826134b0565b6060600082600001516001600160401b038111156138e257634e487b7160e01b600052604160045260246000fd5b6040519080825280601f01601f19166020018201604052801561390c576020820181803683370190505b5090508051600014156139205790506117ff565b600081602001905061393b8460200151828660000151613d68565b5092915050565b805160009060211461395357600080fd5b6000808360200151600161396791906149bd565b51949350505050565b6000808061397d86612b39565b9050600081516001600160401b038111156139a857634e487b7160e01b600052604160045260246000fd5b6040519080825280601f01601f1916602001820160405280156139d2576020820181803683370190505b509050845b82516139e390876149bd565b811015613a72576000878281518110613a0c57634e487b7160e01b600052603260045260246000fd5b01602001516001600160f81b03191690508083613a298985614b3e565b81518110613a4757634e487b7160e01b600052603260045260246000fd5b60200101906001600160f81b031916908160001a905350508080613a6a90614bdd565b9150506139d7565b50808051906020012082805190602001201415613a925781519250613a97565b600092505b509095945050505050565b600060208251613ab29190614bf8565b15613acf5760405162461bcd60e51b81526004016108879061471c565b600060208351613adf91906149d5565b9050613aec816002614a51565b8510613b0a5760405162461bcd60e51b81526004016108879061474a565b60008660205b85518111613ba857858101519250613b29600289614bf8565b613b5d578183604051602001613b409291906142f9565b604051602081830303815290604052805190602001209150613b89565b8282604051602001613b709291906142f9565b6040516020818303038152906040528051906020012091505b613b946002896149d5565b9750613ba16020826149bd565b9050613b10565b509094149695505050505050565b8051600090811a6080811015613bd05760009150506117ff565b60b8811080613beb575060c08110801590613beb575060f881105b15613bfa5760019150506117ff565b60c0811015613c2f57613c0f600160b8614b55565b613c1c9060ff1682614b3e565b613c279060016149bd565b9150506117ff565b613c0f600160f8614b55565b50919050565b8051600090613c52575060006117ff565b600080613c628460200151613bb6565b8460200151613c7191906149bd565b9050600084600001518560200151613c8991906149bd565b90505b80821015613cbb57613c9d82613cc4565b613ca790836149bd565b915082613cb381614bdd565b935050613c8c565b50909392505050565b80516000908190811a6080811015613cdf576001915061393b565b60b8811015613d0557613cf3608082614b3e565b613cfe9060016149bd565b915061393b565b60c0811015613d325760b78103600185019450806020036101000a8551046001820181019350505061393b565b60f8811015613d4657613cf360c082614b3e565b60019390930151602084900360f7016101000a900490920160f5190192915050565b80613d7257613895565b60208110613daa5782518252613d896020846149bd565b9250613d966020836149bd565b9150613da3602082614b3e565b9050613d72565b8061386257613895565b5080546000825560050290600052602060002090810190613dd59190613e46565b50565b6040518060200160405280606081525090565b60405180606001604052806060815260200160608152602001600081525090565b6040518060400160405280613e1f613e2c565b8152602001606081525090565b604051806040016040528060008152602001600081525090565b80821115613e6d57600060038201819055613e646004830182613e71565b50600501613e46565b5090565b5080546000825590600052602060002090810190613dd591905b80821115613e6d5760008155600101613e8b565b600060208284031215613eb0578081fd5b81356127d481614c70565b600060208284031215613ecc578081fd5b5035919050565b60008060408385031215613ee5578081fd5b823591506020830135613ef781614c70565b809150509250929050565b60008060408385031215613f14578182fd5b50508035926020909101359150565b600080600080600060a08688031215613f3a578081fd5b855194506020860151935060408601519250606086015191506080860151613f6181614c70565b809150509295509295909350565b600060208284031215613f80578081fd5b81356001600160401b03811115613f95578182fd5b8201601f81018413613fa5578182fd5b8035613fb8613fb38261498a565b614961565b818152856020838501011115613fcc578384fd5b81602084016020830137908101602001929092525092915050565b600060208284031215613ff8578081fd5b81516001600160401b0381111561400d578182fd5b8201601f8101841361401d578182fd5b805161402b613fb38261498a565b81815285602083850101111561403f578384fd5b614050826020830160208601614b78565b95945050505050565b60006020828403121561406a578081fd5b5051919050565b60008060408385031215613ee5578182fd5b600080600060608486031215614097578283fd5b8335925060208401356140a981614c70565b929592945050506040919091013590565b600080600080608085870312156140cf578384fd5b8435935060208501356140e181614c70565b93969395505050506040820135916060013590565b60008060006040848603121561410a578081fd5b8335925060208401356001600160401b0380821115614127578283fd5b818601915086601f83011261413a578283fd5b813581811115614148578384fd5b876020828501011115614159578384fd5b6020830194508093505050509250925092565b6000806040838503121561417e578182fd5b505080516020909101519092909150565b6000806000606084860312156141a3578081fd5b833592506020840135915060408401356141bc81614c70565b809150509250925092565b6000806000606084860312156141db578081fd5b505081359360208301359350604090920135919050565b6000815180845260208085019450808401835b8381101561422157815187529582019590820190600101614205565b509495945050505050565b60008151808452614244816020860160208601614b78565b601f01601f19169290920160200192915050565b80546000906002810460018083168061427257607f831692505b602080841082141561429257634e487b7160e01b86526022600452602486fd5b61429c8489614408565b8280156142b057600181146142c1576142ec565b60ff198716825282820197506142ec565b6142ca896149b1565b60005b878110156142e6578154848201529086019084016142cd565b83019850505b5050505050505092915050565b918252602082015260400190565b60008251614319818460208701614b78565b9190910192915050565b6000848252835161433b816020850160208801614b78565b60209201918201929092526040019392505050565b93845260208401929092526040830152606082015260800190565b6001600160a01b0391909116815260200190565b6001600160a01b03831681526040602082018190526000906127d69083018461422c565b6000604082526143b660408301856141f2565b828103602084015261405081856141f2565b6000606082526143db60608301866141f2565b84602084015282810360408401526143f381856141f2565b9695505050505050565b901515815260200190565b90815260200190565b9182526001600160a01b0316602082015260400190565b9283526001600160a01b03919091166020830152604082015260600190565b600060208252612622602083018461422c565b6000602082526126226020830184614258565b608081016005861061448f57634e487b7160e01b600052602160045260246000fd5b9481526001600160f81b03939093166020840152604083019190915260609091015290565b60006020825282602083015282846040840137818301604090810191909152601f909201601f19160101919050565b60208082526017908201527f4469737075746520616c72656164792063726561746564000000000000000000604082015260600190565b60208082526017908201527f4f6e6c792061726269747261746f7220616c6c6f776564000000000000000000604082015260600190565b60208082526017908201527f4661696c656420746f2063616c6c20636f6e7472616374000000000000000000604082015260600190565b6020808252602a908201527f467842617365526f6f7454756e6e656c3a204348494c445f54554e4e454c5f4160408201526913149150511657d4d15560b21b606082015260800190565b60208082526023908201527f4678526f6f7454756e6e656c3a20494e56414c49445f524543454950545f505260408201526227a7a360e91b606082015260800190565b60208082526024908201527f4678526f6f7454756e6e656c3a20455849545f414c52454144595f50524f434560408201526314d4d15160e21b606082015260800190565b6020808252601d908201527f4172626974726174696f6e20616c726561647920726571756573746564000000604082015260600190565b602080825260149082015273111a5cdc1d5d19481b9bdd081c995cdbdb1d995960621b604082015260600190565b6020808252601590820152744465706f7369742076616c756520746f6f206c6f7760581b604082015260600190565b6020808252601590820152742737903234b9b83aba32903a379030b83832b0b61760591b604082015260600190565b602080825260149082015273092dcecc2d8d2c840e0e4dedecc40d8cadccee8d60631b604082015260600190565b6020808252601590820152744c65616620696e64657820697320746f6f2062696760581b604082015260600190565b6020808252601c908201527f4678526f6f7454756e6e656c3a20494e56414c49445f48454144455200000000604082015260600190565b6020808252601f908201527f4678526f6f7454756e6e656c3a20494e56414c49445f5349474e415455524500604082015260600190565b60208082526016908201527520b83832b0b6103832b934b7b21034b99037bb32b91760511b604082015260600190565b60208082526025908201527f4678526f6f7454756e6e656c3a20494e56414c49445f46585f4348494c445f54604082015264155393915360da1b606082015260800190565b6020808252601f908201527f41707065616c20706572696f64206973206f76657220666f72206c6f73657200604082015260600190565b6020808252601b908201527f41707065616c2066656520697320616c726561647920706169642e0000000000604082015260600190565b6020808252601a908201527f496e76616c6964206172626974726174696f6e20737461747573000000000000604082015260600190565b6020808252601d908201527f43616e206f6e6c792062652063616c6c65642076696120627269646765000000604082015260600190565b9182521515602082015260400190565b6000838252604060208301526127d66040830184614258565b6040518181016001600160401b038111828210171561498257614982614c5a565b604052919050565b60006001600160401b038211156149a3576149a3614c5a565b50601f01601f191660200190565b60009081526020902090565b600082198211156149d0576149d0614c2e565b500190565b6000826149e4576149e4614c44565b500490565b600060ff8316806149fc576149fc614c44565b8060ff84160491505092915050565b80825b6001808611614a1d5750614a48565b818704821115614a2f57614a2f614c2e565b80861615614a3c57918102915b9490941c938002614a0e565b94509492505050565b60006126226000198484600082614a6a57506001612622565b81614a7757506000612622565b8160018114614a8d5760028114614a9757614ac4565b6001915050612622565b60ff841115614aa857614aa8614c2e565b6001841b915084821115614abe57614abe614c2e565b50612622565b5060208310610133831016604e8410600b8410161715614af7575081810a83811115614af257614af2614c2e565b612622565b614b048484846001614a0b565b808604821115614b1657614b16614c2e565b02949350505050565b6000816000190483118215151615614b3957614b39614c2e565b500290565b600082821015614b5057614b50614c2e565b500390565b600060ff821660ff841680821015614b6f57614b6f614c2e565b90039392505050565b60005b83811015614b93578181015183820152602001614b7b565b83811115614ba2576000848401525b50505050565b600281046001821680614bbc57607f821691505b60208210811415613c3b57634e487b7160e01b600052602260045260246000fd5b6000600019821415614bf157614bf1614c2e565b5060010190565b600082614c0757614c07614c44565b500690565b600060ff831680614c1f57614c1f614c44565b8060ff84160691505092915050565b634e487b7160e01b600052601160045260246000fd5b634e487b7160e01b600052601260045260246000fd5b634e487b7160e01b600052604160045260246000fd5b6001600160a01b0381168114613dd557600080fdfea26469706673582212201c0cb58f9ed15a6e1fed13bc5dbd70884b3119967533ad8a4be461cad6464ce964736f6c63430008000033",
  "devdoc": {
    "details": "This contract is meant to be deployed to the Ethereum chains where Kleros is deployed.",
    "kind": "dev",
    "methods": {
      "constructor": {
        "params": {
          "_arbitrator": "Arbitrator contract address.",
          "_arbitratorExtraData": "The extra data used to raise a dispute in the arbitrator.",
          "_checkpointManager": "For Polygon FX-portal bridge.",
          "_fxRoot": "Address of the FxRoot contract of the Polygon bridge.",
          "_loserAppealPeriodMultiplier": "Multiplier for calculating the appeal period for the losing answer.",
          "_loserMultiplier": "Multiplier for calculation the appeal cost of the losing answer.",
          "_metaEvidence": "The URI of the meta evidence file.",
          "_termsOfService": "The path for the Terms of Service for Kleros as an arbitrator for Realitio.",
          "_winnerMultiplier": "Multiplier for calculating the appeal cost of the winning answer."
        }
      },
      "externalIDtoLocalID(uint256)": {
        "params": {
          "_externalDisputeID": "Dispute id as in arbitrator side."
        },
        "returns": {
          "_0": "localDisputeID Dispute id as in arbitrable contract."
        }
      },
      "fundAppeal(uint256,uint256)": {
        "params": {
          "_answer": "One of the possible rulings the arbitrator can give that the funder considers to be the correct answer to the question. Note that the answer has Kleros denomination, meaning that it has '+1' offset compared to Realitio format. Also note that '0' answer can be funded.",
          "_arbitrationID": "The ID of the arbitration, which is questionID cast into uint256."
        },
        "returns": {
          "_0": "Whether the answer was fully funded or not."
        }
      },
      "getContributionsToSuccessfulFundings(uint256,uint256,address)": {
        "params": {
          "_arbitrationID": "The ID of the arbitration.",
          "_contributor": "The address whose contributions to query.",
          "_round": "The round to query."
        },
        "returns": {
          "contributions": "The amount contributed to each funded answer by the contributor.",
          "fundedAnswers": "IDs of the answers that are fully funded."
        }
      },
      "getDisputeFee(bytes32)": {
        "returns": {
          "_0": "The fee to create a dispute."
        }
      },
      "getFundingStatus(uint256,uint256,uint256)": {
        "params": {
          "_answer": "The answer choice to get funding status for.",
          "_arbitrationID": "The ID of the arbitration.",
          "_round": "The round to query."
        },
        "returns": {
          "fullyFunded": "Whether the answer is fully funded or not.",
          "raised": "The amount paid for this answer."
        }
      },
      "getMultipliers()": {
        "returns": {
          "divisor": "Multiplier divisor.",
          "loser": "Losers stake multiplier.",
          "loserAppealPeriod": "Multiplier for calculating an appeal period duration for the losing side.",
          "winner": "Winners stake multiplier."
        }
      },
      "getNumberOfRounds(uint256)": {
        "params": {
          "_arbitrationID": "The ID of the arbitration related to the question."
        },
        "returns": {
          "_0": "The number of rounds."
        }
      },
      "getRoundInfo(uint256,uint256)": {
        "params": {
          "_arbitrationID": "The ID of the arbitration.",
          "_round": "The round to query."
        },
        "returns": {
          "feeRewards": "The amount of fees that will be used as rewards.",
          "fundedAnswers": "IDs of fully funded answers.",
          "paidFees": "The amount of fees paid for each fully funded answer."
        }
      },
      "getTotalWithdrawableAmount(uint256,address,uint256)": {
        "details": "This function is O(n) where n is the total number of rounds.This could exceed the gas limit, therefore this function should be used only as a utility and not be relied upon by other contracts.",
        "params": {
          "_arbitrationID": "The ID of the arbitration.",
          "_beneficiary": "The contributor for which to query.",
          "_contributedTo": "Answer that received contributions from contributor."
        },
        "returns": {
          "sum": "The total amount available to withdraw."
        }
      },
      "handleFailedDisputeCreation(bytes32,address)": {
        "params": {
          "_questionID": "The ID of the question.",
          "_requester": "The address of the arbitration requester."
        }
      },
      "numberOfRulingOptions(uint256)": {
        "returns": {
          "_0": "count The number of ruling options."
        }
      },
      "questionIDToArbitrationID(bytes32)": {
        "params": {
          "_questionID": "The ID of the question."
        },
        "returns": {
          "_0": "The ID of the arbitration."
        }
      },
      "receiveArbitrationAcknowledgement(bytes32,address)": {
        "params": {
          "_questionID": "The ID of the question.",
          "_requester": "The requester."
        }
      },
      "receiveArbitrationCancelation(bytes32,address)": {
        "params": {
          "_questionID": "The ID of the question.",
          "_requester": "The requester."
        }
      },
      "receiveMessage(bytes)": {
        "details": "This function verifies if the transaction actually happened on child chain",
        "params": {
          "inputData": "RLP encoded data of the reference tx containing following list of fields  0 - headerNumber - Checkpoint header block number containing the reference tx  1 - blockProof - Proof that the block header (in the child chain) is a leaf in the submitted merkle root  2 - blockNumber - Block number containing the reference tx on child chain  3 - blockTime - Reference tx block time  4 - txRoot - Transactions root of block  5 - receiptRoot - Receipts root of block  6 - receipt - Receipt of the reference transaction  7 - receiptProof - Merkle proof of the reference receipt  8 - branchMask - 32 bits denoting the path of receipt in merkle tree  9 - receiptLogIndex - Log Index to read from the receipt"
        }
      },
      "requestArbitration(bytes32,uint256)": {
        "params": {
          "_maxPrevious": "The maximum value of the current bond for the question. The arbitration request will get rejected if the current bond is greater than _maxPrevious. If set to 0, _maxPrevious is ignored.",
          "_questionID": "The ID of the question."
        }
      },
      "rule(uint256,uint256)": {
        "details": "Accounts for the situation where the winner loses a case due to paying less appeal fees than expected.",
        "params": {
          "_disputeID": "The ID of the dispute in the ERC792 arbitrator.",
          "_ruling": "The ruling given by the arbitrator."
        }
      },
      "submitEvidence(uint256,string)": {
        "params": {
          "_arbitrationID": "The ID of the arbitration related to the question.",
          "_evidenceURI": "Link to evidence."
        }
      },
      "withdrawFeesAndRewards(uint256,address,uint256,uint256)": {
        "params": {
          "_answer": "The answer to query the reward from.",
          "_arbitrationID": "The ID of the arbitration.",
          "_beneficiary": "The address to send reward to.",
          "_round": "The round from which to withdraw."
        },
        "returns": {
          "reward": "The withdrawn amount."
        }
      },
      "withdrawFeesAndRewardsForAllRounds(uint256,address,uint256)": {
        "details": "This function is O(n) where n is the total number of rounds. Arbitration cost of subsequent rounds is `A(n) = 2A(n-1) + 1`.      So because of this exponential growth of costs, you can assume n is less than 10 at all times.",
        "params": {
          "_arbitrationID": "The ID of the arbitration.",
          "_beneficiary": "The address that made contributions.",
          "_contributedTo": "Answer that received contributions from contributor."
        }
      }
    },
    "title": "Arbitration proxy for Realitio on Ethereum side (A.K.A. the Foreign Chain).",
    "version": 1
  },
  "userdoc": {
    "events": {
      "ArbitrationCanceled(bytes32,address)": {
        "notice": "Should be emitted when the arbitration is canceled by the Home Chain."
      },
      "ArbitrationCreated(bytes32,address,uint256)": {
        "notice": "Should be emitted when the dispute is created."
      },
      "ArbitrationFailed(bytes32,address)": {
        "notice": "Should be emitted when the dispute could not be created."
      },
      "ArbitrationRequested(bytes32,address,uint256)": {
        "notice": "Should be emitted when the arbitration is requested."
      }
    },
    "kind": "user",
    "methods": {
      "constructor": {
        "notice": "Creates an arbitration proxy on the foreign chain."
      },
      "externalIDtoLocalID(uint256)": {
        "notice": "Maps external (arbitrator side) dispute id to local (arbitrable) dispute id."
      },
      "fundAppeal(uint256,uint256)": {
        "notice": "Takes up to the total amount required to fund an answer. Reimburses the rest. Creates an appeal if at least two answers are funded."
      },
      "getContributionsToSuccessfulFundings(uint256,uint256,address)": {
        "notice": "Gets contributions to the answers that are fully funded."
      },
      "getDisputeFee(bytes32)": {
        "notice": "Gets the fee to create a dispute."
      },
      "getFundingStatus(uint256,uint256,uint256)": {
        "notice": "Gets the information of a round of a question for a specific answer choice."
      },
      "getMultipliers()": {
        "notice": "Returns stake multipliers."
      },
      "getNumberOfRounds(uint256)": {
        "notice": "Gets the number of rounds of the specific question."
      },
      "getRoundInfo(uint256,uint256)": {
        "notice": "Gets the information of a round of a question."
      },
      "getTotalWithdrawableAmount(uint256,address,uint256)": {
        "notice": "Returns the sum of withdrawable amount."
      },
      "handleFailedDisputeCreation(bytes32,address)": {
        "notice": "Cancels the arbitration in case the dispute could not be created."
      },
      "numberOfRulingOptions(uint256)": {
        "notice": "Returns number of possible ruling options. Valid rulings are [0, return value]."
      },
      "questionIDToArbitrationID(bytes32)": {
        "notice": "Casts question ID into uint256 thus returning the related arbitration ID."
      },
      "receiveArbitrationAcknowledgement(bytes32,address)": {
        "notice": "Receives the acknowledgement of the arbitration request for the given question and requester. TRUSTED."
      },
      "receiveArbitrationCancelation(bytes32,address)": {
        "notice": "Receives the cancelation of the arbitration request for the given question and requester. TRUSTED."
      },
      "receiveMessage(bytes)": {
        "notice": "receive message from  L2 to L1, validated by proof"
      },
      "requestArbitration(bytes32,uint256)": {
        "notice": "Requests arbitration for the given question and contested answer."
      },
      "rule(uint256,uint256)": {
        "notice": "Rules a specified dispute. Can only be called by the arbitrator."
      },
      "submitEvidence(uint256,string)": {
        "notice": "Allows to submit evidence for a particular question."
      },
      "withdrawFeesAndRewards(uint256,address,uint256,uint256)": {
        "notice": "Sends the fee stake rewards and reimbursements proportional to the contributions made to the winner of a dispute. Reimburses contributions if there is no winner."
      },
      "withdrawFeesAndRewardsForAllRounds(uint256,address,uint256)": {
        "notice": "Allows to withdraw any rewards or reimbursable fees for all rounds at once."
      }
    },
    "version": 1
  },
  "storageLayout": {
    "storage": [
      {
        "astId": 2934,
        "contract": "src/RealitioForeignArbitrationProxyWithAppeals.sol:RealitioForeignArbitrationProxyWithAppeals",
        "label": "fxRoot",
        "offset": 0,
        "slot": "0",
        "type": "t_contract(IFxStateSender)2884"
      },
      {
        "astId": 2937,
        "contract": "src/RealitioForeignArbitrationProxyWithAppeals.sol:RealitioForeignArbitrationProxyWithAppeals",
        "label": "checkpointManager",
        "offset": 0,
        "slot": "1",
        "type": "t_contract(ICheckpointManager)2902"
      },
      {
        "astId": 2939,
        "contract": "src/RealitioForeignArbitrationProxyWithAppeals.sol:RealitioForeignArbitrationProxyWithAppeals",
        "label": "fxChildTunnel",
        "offset": 0,
        "slot": "2",
        "type": "t_address"
      },
      {
        "astId": 2943,
        "contract": "src/RealitioForeignArbitrationProxyWithAppeals.sol:RealitioForeignArbitrationProxyWithAppeals",
        "label": "processedExits",
        "offset": 0,
        "slot": "3",
        "type": "t_mapping(t_bytes32,t_bool)"
      },
      {
        "astId": 556,
        "contract": "src/RealitioForeignArbitrationProxyWithAppeals.sol:RealitioForeignArbitrationProxyWithAppeals",
        "label": "arbitratorExtraData",
        "offset": 0,
        "slot": "4",
        "type": "t_bytes_storage"
      },
      {
        "astId": 558,
        "contract": "src/RealitioForeignArbitrationProxyWithAppeals.sol:RealitioForeignArbitrationProxyWithAppeals",
        "label": "termsOfService",
        "offset": 0,
        "slot": "5",
        "type": "t_string_storage"
      },
      {
        "astId": 571,
        "contract": "src/RealitioForeignArbitrationProxyWithAppeals.sol:RealitioForeignArbitrationProxyWithAppeals",
        "label": "arbitrationRequests",
        "offset": 0,
        "slot": "6",
        "type": "t_mapping(t_uint256,t_mapping(t_address,t_struct(ArbitrationRequest)526_storage))"
      },
      {
        "astId": 576,
        "contract": "src/RealitioForeignArbitrationProxyWithAppeals.sol:RealitioForeignArbitrationProxyWithAppeals",
        "label": "disputeIDToDisputeDetails",
        "offset": 0,
        "slot": "7",
        "type": "t_mapping(t_uint256,t_struct(DisputeDetails)531_storage)"
      },
      {
        "astId": 580,
        "contract": "src/RealitioForeignArbitrationProxyWithAppeals.sol:RealitioForeignArbitrationProxyWithAppeals",
        "label": "arbitrationIDToDisputeExists",
        "offset": 0,
        "slot": "8",
        "type": "t_mapping(t_uint256,t_bool)"
      },
      {
        "astId": 584,
        "contract": "src/RealitioForeignArbitrationProxyWithAppeals.sol:RealitioForeignArbitrationProxyWithAppeals",
        "label": "arbitrationIDToRequester",
        "offset": 0,
        "slot": "9",
        "type": "t_mapping(t_uint256,t_address)"
      }
    ],
    "types": {
      "t_address": {
        "encoding": "inplace",
        "label": "address",
        "numberOfBytes": "20"
      },
      "t_array(t_struct(Round)551_storage)dyn_storage": {
        "base": "t_struct(Round)551_storage",
        "encoding": "dynamic_array",
        "label": "struct RealitioForeignArbitrationProxyWithAppeals.Round[]",
        "numberOfBytes": "32"
      },
      "t_array(t_uint256)dyn_storage": {
        "base": "t_uint256",
        "encoding": "dynamic_array",
        "label": "uint256[]",
        "numberOfBytes": "32"
      },
      "t_bool": {
        "encoding": "inplace",
        "label": "bool",
        "numberOfBytes": "1"
      },
      "t_bytes32": {
        "encoding": "inplace",
        "label": "bytes32",
        "numberOfBytes": "32"
      },
      "t_bytes_storage": {
        "encoding": "bytes",
        "label": "bytes",
        "numberOfBytes": "32"
      },
      "t_contract(ICheckpointManager)2902": {
        "encoding": "inplace",
        "label": "contract ICheckpointManager",
        "numberOfBytes": "20"
      },
      "t_contract(IFxStateSender)2884": {
        "encoding": "inplace",
        "label": "contract IFxStateSender",
        "numberOfBytes": "20"
      },
      "t_enum(Status)512": {
        "encoding": "inplace",
        "label": "enum RealitioForeignArbitrationProxyWithAppeals.Status",
        "numberOfBytes": "1"
      },
      "t_mapping(t_address,t_mapping(t_uint256,t_uint256))": {
        "encoding": "mapping",
        "key": "t_address",
        "label": "mapping(address => mapping(uint256 => uint256))",
        "numberOfBytes": "32",
        "value": "t_mapping(t_uint256,t_uint256)"
      },
      "t_mapping(t_address,t_struct(ArbitrationRequest)526_storage)": {
        "encoding": "mapping",
        "key": "t_address",
        "label": "mapping(address => struct RealitioForeignArbitrationProxyWithAppeals.ArbitrationRequest)",
        "numberOfBytes": "32",
        "value": "t_struct(ArbitrationRequest)526_storage"
      },
      "t_mapping(t_bytes32,t_bool)": {
        "encoding": "mapping",
        "key": "t_bytes32",
        "label": "mapping(bytes32 => bool)",
        "numberOfBytes": "32",
        "value": "t_bool"
      },
      "t_mapping(t_uint256,t_address)": {
        "encoding": "mapping",
        "key": "t_uint256",
        "label": "mapping(uint256 => address)",
        "numberOfBytes": "32",
        "value": "t_address"
      },
      "t_mapping(t_uint256,t_bool)": {
        "encoding": "mapping",
        "key": "t_uint256",
        "label": "mapping(uint256 => bool)",
        "numberOfBytes": "32",
        "value": "t_bool"
      },
      "t_mapping(t_uint256,t_mapping(t_address,t_struct(ArbitrationRequest)526_storage))": {
        "encoding": "mapping",
        "key": "t_uint256",
        "label": "mapping(uint256 => mapping(address => struct RealitioForeignArbitrationProxyWithAppeals.ArbitrationRequest))",
        "numberOfBytes": "32",
        "value": "t_mapping(t_address,t_struct(ArbitrationRequest)526_storage)"
      },
      "t_mapping(t_uint256,t_struct(DisputeDetails)531_storage)": {
        "encoding": "mapping",
        "key": "t_uint256",
        "label": "mapping(uint256 => struct RealitioForeignArbitrationProxyWithAppeals.DisputeDetails)",
        "numberOfBytes": "32",
        "value": "t_struct(DisputeDetails)531_storage"
      },
      "t_mapping(t_uint256,t_uint256)": {
        "encoding": "mapping",
        "key": "t_uint256",
        "label": "mapping(uint256 => uint256)",
        "numberOfBytes": "32",
        "value": "t_uint256"
      },
      "t_string_storage": {
        "encoding": "bytes",
        "label": "string",
        "numberOfBytes": "32"
      },
      "t_struct(ArbitrationRequest)526_storage": {
        "encoding": "inplace",
        "label": "struct RealitioForeignArbitrationProxyWithAppeals.ArbitrationRequest",
        "members": [
          {
            "astId": 515,
            "contract": "src/RealitioForeignArbitrationProxyWithAppeals.sol:RealitioForeignArbitrationProxyWithAppeals",
            "label": "status",
            "offset": 0,
            "slot": "0",
            "type": "t_enum(Status)512"
          },
          {
            "astId": 517,
            "contract": "src/RealitioForeignArbitrationProxyWithAppeals.sol:RealitioForeignArbitrationProxyWithAppeals",
            "label": "deposit",
            "offset": 1,
            "slot": "0",
            "type": "t_uint248"
          },
          {
            "astId": 519,
            "contract": "src/RealitioForeignArbitrationProxyWithAppeals.sol:RealitioForeignArbitrationProxyWithAppeals",
            "label": "disputeID",
            "offset": 0,
            "slot": "1",
            "type": "t_uint256"
          },
          {
            "astId": 521,
            "contract": "src/RealitioForeignArbitrationProxyWithAppeals.sol:RealitioForeignArbitrationProxyWithAppeals",
            "label": "answer",
            "offset": 0,
            "slot": "2",
            "type": "t_uint256"
          },
          {
            "astId": 525,
            "contract": "src/RealitioForeignArbitrationProxyWithAppeals.sol:RealitioForeignArbitrationProxyWithAppeals",
            "label": "rounds",
            "offset": 0,
            "slot": "3",
            "type": "t_array(t_struct(Round)551_storage)dyn_storage"
          }
        ],
        "numberOfBytes": "128"
      },
      "t_struct(DisputeDetails)531_storage": {
        "encoding": "inplace",
        "label": "struct RealitioForeignArbitrationProxyWithAppeals.DisputeDetails",
        "members": [
          {
            "astId": 528,
            "contract": "src/RealitioForeignArbitrationProxyWithAppeals.sol:RealitioForeignArbitrationProxyWithAppeals",
            "label": "arbitrationID",
            "offset": 0,
            "slot": "0",
            "type": "t_uint256"
          },
          {
            "astId": 530,
            "contract": "src/RealitioForeignArbitrationProxyWithAppeals.sol:RealitioForeignArbitrationProxyWithAppeals",
            "label": "requester",
            "offset": 0,
            "slot": "1",
            "type": "t_address"
          }
        ],
        "numberOfBytes": "64"
      },
      "t_struct(Round)551_storage": {
        "encoding": "inplace",
        "label": "struct RealitioForeignArbitrationProxyWithAppeals.Round",
        "members": [
          {
            "astId": 535,
            "contract": "src/RealitioForeignArbitrationProxyWithAppeals.sol:RealitioForeignArbitrationProxyWithAppeals",
            "label": "paidFees",
            "offset": 0,
            "slot": "0",
            "type": "t_mapping(t_uint256,t_uint256)"
          },
          {
            "astId": 539,
            "contract": "src/RealitioForeignArbitrationProxyWithAppeals.sol:RealitioForeignArbitrationProxyWithAppeals",
            "label": "hasPaid",
            "offset": 0,
            "slot": "1",
            "type": "t_mapping(t_uint256,t_bool)"
          },
          {
            "astId": 545,
            "contract": "src/RealitioForeignArbitrationProxyWithAppeals.sol:RealitioForeignArbitrationProxyWithAppeals",
            "label": "contributions",
            "offset": 0,
            "slot": "2",
            "type": "t_mapping(t_address,t_mapping(t_uint256,t_uint256))"
          },
          {
            "astId": 547,
            "contract": "src/RealitioForeignArbitrationProxyWithAppeals.sol:RealitioForeignArbitrationProxyWithAppeals",
            "label": "feeRewards",
            "offset": 0,
            "slot": "3",
            "type": "t_uint256"
          },
          {
            "astId": 550,
            "contract": "src/RealitioForeignArbitrationProxyWithAppeals.sol:RealitioForeignArbitrationProxyWithAppeals",
            "label": "fundedAnswers",
            "offset": 0,
            "slot": "4",
            "type": "t_array(t_uint256)dyn_storage"
          }
        ],
        "numberOfBytes": "160"
      },
      "t_uint248": {
        "encoding": "inplace",
        "label": "uint248",
        "numberOfBytes": "31"
      },
      "t_uint256": {
        "encoding": "inplace",
        "label": "uint256",
        "numberOfBytes": "32"
      }
    }
  }
}