{
  "address": "0x8453bA2C9eA5Bae36fDe6cBd61c12c05b6552425",
  "abi": [
    {
      "inputs": [
        {
          "internalType": "address",
          "name": "_fxChild",
          "type": "address"
        },
        {
          "internalType": "contract RealitioInterface",
          "name": "_realitio",
          "type": "address"
        }
      ],
      "stateMutability": "nonpayable",
      "type": "constructor"
    },
    {
      "anonymous": false,
      "inputs": [
        {
          "indexed": true,
          "internalType": "bytes32",
          "name": "_questionID",
          "type": "bytes32"
        },
        {
          "indexed": true,
          "internalType": "address",
          "name": "_requester",
          "type": "address"
        }
      ],
      "name": "ArbitrationFailed",
      "type": "event"
    },
    {
      "anonymous": false,
      "inputs": [
        {
          "indexed": true,
          "internalType": "bytes32",
          "name": "_questionID",
          "type": "bytes32"
        }
      ],
      "name": "ArbitrationFinished",
      "type": "event"
    },
    {
      "anonymous": false,
      "inputs": [
        {
          "indexed": true,
          "internalType": "bytes32",
          "name": "_questionID",
          "type": "bytes32"
        },
        {
          "indexed": false,
          "internalType": "bytes32",
          "name": "_answer",
          "type": "bytes32"
        }
      ],
      "name": "ArbitratorAnswered",
      "type": "event"
    },
    {
      "anonymous": false,
      "inputs": [
        {
          "indexed": false,
          "internalType": "bytes",
          "name": "message",
          "type": "bytes"
        }
      ],
      "name": "MessageSent",
      "type": "event"
    },
    {
      "anonymous": false,
      "inputs": [
        {
          "indexed": true,
          "internalType": "bytes32",
          "name": "_questionID",
          "type": "bytes32"
        },
        {
          "indexed": true,
          "internalType": "address",
          "name": "_requester",
          "type": "address"
        }
      ],
      "name": "RequestAcknowledged",
      "type": "event"
    },
    {
      "anonymous": false,
      "inputs": [
        {
          "indexed": true,
          "internalType": "bytes32",
          "name": "_questionID",
          "type": "bytes32"
        },
        {
          "indexed": true,
          "internalType": "address",
          "name": "_requester",
          "type": "address"
        }
      ],
      "name": "RequestCanceled",
      "type": "event"
    },
    {
      "anonymous": false,
      "inputs": [
        {
          "indexed": true,
          "internalType": "bytes32",
          "name": "_questionID",
          "type": "bytes32"
        },
        {
          "indexed": true,
          "internalType": "address",
          "name": "_requester",
          "type": "address"
        },
        {
          "indexed": false,
          "internalType": "uint256",
          "name": "_maxPrevious",
          "type": "uint256"
        }
      ],
      "name": "RequestNotified",
      "type": "event"
    },
    {
      "anonymous": false,
      "inputs": [
        {
          "indexed": true,
          "internalType": "bytes32",
          "name": "_questionID",
          "type": "bytes32"
        },
        {
          "indexed": true,
          "internalType": "address",
          "name": "_requester",
          "type": "address"
        },
        {
          "indexed": false,
          "internalType": "uint256",
          "name": "_maxPrevious",
          "type": "uint256"
        },
        {
          "indexed": false,
          "internalType": "string",
          "name": "_reason",
          "type": "string"
        }
      ],
      "name": "RequestRejected",
      "type": "event"
    },
    {
      "inputs": [],
      "name": "fxChild",
      "outputs": [
        {
          "internalType": "address",
          "name": "",
          "type": "address"
        }
      ],
      "stateMutability": "view",
      "type": "function"
    },
    {
      "inputs": [],
      "name": "fxRootTunnel",
      "outputs": [
        {
          "internalType": "address",
          "name": "",
          "type": "address"
        }
      ],
      "stateMutability": "view",
      "type": "function"
    },
    {
      "inputs": [
        {
          "internalType": "bytes32",
          "name": "_questionID",
          "type": "bytes32"
        },
        {
          "internalType": "address",
          "name": "_requester",
          "type": "address"
        }
      ],
      "name": "handleNotifiedRequest",
      "outputs": [],
      "stateMutability": "nonpayable",
      "type": "function"
    },
    {
      "inputs": [
        {
          "internalType": "bytes32",
          "name": "_questionID",
          "type": "bytes32"
        },
        {
          "internalType": "address",
          "name": "_requester",
          "type": "address"
        }
      ],
      "name": "handleRejectedRequest",
      "outputs": [],
      "stateMutability": "nonpayable",
      "type": "function"
    },
    {
      "inputs": [],
      "name": "metadata",
      "outputs": [
        {
          "internalType": "string",
          "name": "",
          "type": "string"
        }
      ],
      "stateMutability": "view",
      "type": "function"
    },
    {
      "inputs": [
        {
          "internalType": "uint256",
          "name": "stateId",
          "type": "uint256"
        },
        {
          "internalType": "address",
          "name": "rootMessageSender",
          "type": "address"
        },
        {
          "internalType": "bytes",
          "name": "data",
          "type": "bytes"
        }
      ],
      "name": "processMessageFromRoot",
      "outputs": [],
      "stateMutability": "nonpayable",
      "type": "function"
    },
    {
      "inputs": [
        {
          "internalType": "bytes32",
          "name": "",
          "type": "bytes32"
        }
      ],
      "name": "questionIDToRequester",
      "outputs": [
        {
          "internalType": "address",
          "name": "",
          "type": "address"
        }
      ],
      "stateMutability": "view",
      "type": "function"
    },
    {
      "inputs": [],
      "name": "realitio",
      "outputs": [
        {
          "internalType": "contract RealitioInterface",
          "name": "",
          "type": "address"
        }
      ],
      "stateMutability": "view",
      "type": "function"
    },
    {
      "inputs": [
        {
          "internalType": "bytes32",
          "name": "_questionID",
          "type": "bytes32"
        },
        {
          "internalType": "bytes32",
          "name": "_answer",
          "type": "bytes32"
        }
      ],
      "name": "receiveArbitrationAnswer",
      "outputs": [],
      "stateMutability": "nonpayable",
      "type": "function"
    },
    {
      "inputs": [
        {
          "internalType": "bytes32",
          "name": "_questionID",
          "type": "bytes32"
        },
        {
          "internalType": "address",
          "name": "_requester",
          "type": "address"
        }
      ],
      "name": "receiveArbitrationFailure",
      "outputs": [],
      "stateMutability": "nonpayable",
      "type": "function"
    },
    {
      "inputs": [
        {
          "internalType": "bytes32",
          "name": "_questionID",
          "type": "bytes32"
        },
        {
          "internalType": "address",
          "name": "_requester",
          "type": "address"
        },
        {
          "internalType": "uint256",
          "name": "_maxPrevious",
          "type": "uint256"
        }
      ],
      "name": "receiveArbitrationRequest",
      "outputs": [],
      "stateMutability": "nonpayable",
      "type": "function"
    },
    {
      "inputs": [
        {
          "internalType": "bytes32",
          "name": "_questionID",
          "type": "bytes32"
        },
        {
          "internalType": "bytes32",
          "name": "_lastHistoryHash",
          "type": "bytes32"
        },
        {
          "internalType": "bytes32",
          "name": "_lastAnswerOrCommitmentID",
          "type": "bytes32"
        },
        {
          "internalType": "address",
          "name": "_lastAnswerer",
          "type": "address"
        }
      ],
      "name": "reportArbitrationAnswer",
      "outputs": [],
      "stateMutability": "nonpayable",
      "type": "function"
    },
    {
      "inputs": [
        {
          "internalType": "bytes32",
          "name": "",
          "type": "bytes32"
        },
        {
          "internalType": "address",
          "name": "",
          "type": "address"
        }
      ],
      "name": "requests",
      "outputs": [
        {
          "internalType": "enum RealitioHomeArbitrationProxy.Status",
          "name": "status",
          "type": "uint8"
        },
        {
          "internalType": "bytes32",
          "name": "arbitratorAnswer",
          "type": "bytes32"
        }
      ],
      "stateMutability": "view",
      "type": "function"
    },
    {
      "inputs": [
        {
          "internalType": "address",
          "name": "_fxRootTunnel",
          "type": "address"
        }
      ],
      "name": "setFxRootTunnel",
      "outputs": [],
      "stateMutability": "nonpayable",
      "type": "function"
    }
  ],
  "transactionHash": "0x1dfd0bc48048adbcb640733fa635b4a19c27d713f8c706be1a395ae2fadb6b09",
  "args": [
    "0xCf73231F28B7331BBe3124B907840A94851f9f11",
    "0x92115220c28e78312cce86f3d1de652cfbd0357a"
  ],
  "solcInputHash": "738061f36660cbff363629b7a9de313d",
  "bytecode": "0x60a060405234801561001057600080fd5b506040516112c13803806112c183398101604081905261002f91610065565b600080546001600160a01b0319166001600160a01b03939093169290921790915560601b6001600160601b0319166080526100b6565b60008060408385031215610077578182fd5b82516100828161009e565b60208401519092506100938161009e565b809150509250929050565b6001600160a01b03811681146100b357600080fd5b50565b60805160601c6111d86100e9600039600081816102af015281816105740152818161063101526108a701526111d86000f3fe608060405234801561001057600080fd5b50600436106100ea5760003560e01c80639a7c4b711161008c578063c510faf711610066578063c510faf7146101a6578063c77cccc9146101c7578063ccd6e8d2146101da578063d75a86e0146101ed576100ea565b80639a7c4b7114610178578063bc8802a21461018b578063bf6569e014610193576100ea565b8063450d11f0116100c8578063450d11f0146101425780637f1e9cb01461014a578063888370941461015257806391602fd714610165576100ea565b80631865fed1146100ef578063241a9f8214610118578063392f37e91461012d575b600080fd5b6101026100fd366004610c50565b610200565b60405161010f9190610df0565b60405180910390f35b61012b610126366004610ce8565b61021b565b005b61013561035c565b60405161010f9190610e77565b61010261038d565b61010261039c565b61012b610160366004610c2f565b6103ab565b61012b610173366004610c68565b6103f6565b61012b610186366004610d26565b610501565b610102610572565b61012b6101a1366004610c68565b610596565b6101b96101b4366004610c68565b6106db565b60405161010f929190610e8a565b61012b6101d5366004610c68565b610705565b61012b6101e8366004610c93565b61080d565b61012b6101fb366004610cc7565b610a47565b6003602052600090815260409020546001600160a01b031681565b600084815260036020908152604080832054600283528184206001600160a01b0390911680855292529091206004815460ff16600581111561026d57634e487b7160e01b600052602160045260246000fd5b146102935760405162461bcd60e51b815260040161028a90610fd9565b60405180910390fd5b60018101546040516335138a4f60e21b81526001600160a01b037f0000000000000000000000000000000000000000000000000000000000000000169163d44e293c916102ec918a9187908b908b908b90600401610e43565b600060405180830381600087803b15801561030657600080fd5b505af115801561031a573d6000803e3d6000fd5b5050825460ff19166005178355505060405186907f2abf2fd86256e4607561adae782a4853682b6c0b976995a9a45c5fc3a175738690600090a2505050505050565b604051806040016040528060158152602001747b22666f726569676e50726f7879223a747275657d60581b81525081565b6000546001600160a01b031681565b6001546001600160a01b031681565b6001546001600160a01b0316156103d45760405162461bcd60e51b815260040161028a90611010565b600180546001600160a01b0319166001600160a01b0392909216919091179055565b60008281526002602081815260408084206001600160a01b038616855290915290912090815460ff16600581111561043e57634e487b7160e01b600052602160045260246000fd5b1461045b5760405162461bcd60e51b815260040161028a90610f79565b805460ff1916600317815560405163e742e2ed60e01b9060009082906104879087908790602401610e0d565b60408051601f198184030181529190526020810180516001600160e01b03166001600160e01b03199093169290921790915290506104c481610b26565b6040516001600160a01b0385169086907fff09615c531ab8799ea1c67a0952ddbef1c864ef91d390995d0dc07656f4210f90600090a35050505050565b6000546001600160a01b0316331461052b5760405162461bcd60e51b815260040161028a90610eb6565b61056c848484848080601f016020809104026020016040519081016040528093929190818152602001838380828437600092019190915250610b6092505050565b50505050565b7f000000000000000000000000000000000000000000000000000000000000000081565b3330146105b55760405162461bcd60e51b815260040161028a9061105a565b60008281526002602090815260408083206001600160a01b038516845290915290206003815460ff1660058111156105fd57634e487b7160e01b600052602160045260246000fd5b1461061a5760405162461bcd60e51b815260040161028a90610f79565b805460ff19168155604051630ebbdd2b60e41b81527f00000000000000000000000000000000000000000000000000000000000000006001600160a01b03169063ebbdd2b09061066e908690600401610e04565b600060405180830381600087803b15801561068857600080fd5b505af115801561069c573d6000803e3d6000fd5b50506040516001600160a01b03851692508591507f9beda0c81abc1c65da7685f113195974dfddb781dfde6263e5a1b13a5356ffad90600090a3505050565b60026020908152600092835260408084209091529082529020805460019091015460ff9091169082565b60008281526002602090815260408083206001600160a01b038516845290915290206001815460ff16600581111561074d57634e487b7160e01b600052602160045260246000fd5b1461076a5760405162461bcd60e51b815260040161028a90610f79565b805460ff191681556040516317c4df9160e31b9060009082906107939087908790602401610e0d565b60408051601f198184030181529190526020810180516001600160e01b03166001600160e01b03199093169290921790915290506107d081610b26565b6040516001600160a01b0385169086907ff313a768599b60b7f8aedb7757d867d09463365b79b55b86ed3c961e6da5a24990600090a35050505050565b33301461082c5760405162461bcd60e51b815260040161028a9061105a565b60008381526002602090815260408083206001600160a01b0386168452909152812090815460ff16600581111561087357634e487b7160e01b600052602160045260246000fd5b146108905760405162461bcd60e51b815260040161028a90610fa9565b60405163f6a94ecb60e01b81526001600160a01b037f0000000000000000000000000000000000000000000000000000000000000000169063f6a94ecb906108e090879087908790600401610e24565b600060405180830381600087803b1580156108fa57600080fd5b505af192505050801561090b575060015b6109d0576109176110fc565b80610922575061097a565b815460ff191660011782556040516001600160a01b0385169086907ff677e762f2ddc710deec335dd0cfa8a65cc9c9c351b268243be8629f2e8d1b5f9061096c9087908690611091565b60405180910390a3506109cb565b805460ff191660011781556040516001600160a01b0384169085907ff677e762f2ddc710deec335dd0cfa8a65cc9c9c351b268243be8629f2e8d1b5f906109c29086906110b2565b60405180910390a35b61056c565b805460ff191660021781556000848152600360205260409081902080546001600160a01b0386166001600160a01b03199091168117909155905185907ff56e18fc84dbd66db78337b5bd0973943fa70c9b52243a540bdac79274f6682d90610a39908690610e04565b60405180910390a350505050565b333014610a665760405162461bcd60e51b815260040161028a9061105a565b600082815260036020818152604080842054600283528185206001600160a01b03909116808652925290922090815460ff166005811115610ab757634e487b7160e01b600052602160045260246000fd5b14610ad45760405162461bcd60e51b815260040161028a90610f79565b805460ff191660041781556001810183905560405184907f1813d15d8cef51cff8bbd419a8e13e0655c1babea320dea4174d5e7bc40c429490610b18908690610e04565b60405180910390a250505050565b7f8c5261668696ce22758910d05bab8f186d6eb247ceac2af2e82c7dc17669b03681604051610b559190610e77565b60405180910390a150565b60015482906001600160a01b03808316911614610b8f5760405162461bcd60e51b815260040161028a90610f2e565b6000306001600160a01b031683604051610ba99190610dd4565b6000604051808303816000865af19150503d8060008114610be6576040519150601f19603f3d011682016040523d82523d6000602084013e610beb565b606091505b5050905080610c0c5760405162461bcd60e51b815260040161028a90610ef7565b5050505050565b80356001600160a01b0381168114610c2a57600080fd5b919050565b600060208284031215610c40578081fd5b610c4982610c13565b9392505050565b600060208284031215610c61578081fd5b5035919050565b60008060408385031215610c7a578081fd5b82359150610c8a60208401610c13565b90509250929050565b600080600060608486031215610ca7578081fd5b83359250610cb760208501610c13565b9150604084013590509250925092565b60008060408385031215610cd9578182fd5b50508035926020909101359150565b60008060008060808587031215610cfd578081fd5b843593506020850135925060408501359150610d1b60608601610c13565b905092959194509250565b60008060008060608587031215610d3b578384fd5b84359350610d4b60208601610c13565b9250604085013567ffffffffffffffff80821115610d67578384fd5b818701915087601f830112610d7a578384fd5b813581811115610d88578485fd5b886020828501011115610d99578485fd5b95989497505060200194505050565b60008151808452610dc08160208601602086016110ca565b601f01601f19169290920160200192915050565b60008251610de68184602087016110ca565b9190910192915050565b6001600160a01b0391909116815260200190565b90815260200190565b9182526001600160a01b0316602082015260400190565b9283526001600160a01b03919091166020830152604082015260600190565b95865260208601949094526001600160a01b039283166040860152606085019190915260808401521660a082015260c00190565b600060208252610c496020830184610da8565b6040810160068410610eac57634e487b7160e01b600052602160045260246000fd5b9281526020015290565b60208082526021908201527f4678426173654368696c6454756e6e656c3a20494e56414c49445f53454e44456040820152602960f91b606082015260800190565b60208082526017908201527f4661696c656420746f2063616c6c20636f6e7472616374000000000000000000604082015260600190565b6020808252602b908201527f4678426173654368696c6454756e6e656c3a20494e56414c49445f53454e444560408201526a1497d19493d357d493d3d560aa1b606082015260800190565b602080825260169082015275496e76616c696420726571756573742073746174757360501b604082015260600190565b6020808252601690820152755265717565737420616c72656164792065786973747360501b604082015260600190565b6020808252601c908201527f41726269747261746f7220686173206e6f742072756c65642079657400000000604082015260600190565b6020808252602a908201527f4678426173654368696c6454756e6e656c3a20524f4f545f54554e4e454c5f4160408201526913149150511657d4d15560b21b606082015260800190565b6020808252601d908201527f43616e206f6e6c792062652063616c6c65642076696120627269646765000000604082015260600190565b6000838252604060208301526110aa6040830184610da8565b949350505050565b90815260406020820181905260009082015260600190565b60005b838110156110e55781810151838201526020016110cd565b8381111561056c5750506000910152565b60e01c90565b600060443d101561110c5761119f565b600481823e6308c379a061112082516110f6565b1461112a5761119f565b6040513d600319016004823e80513d67ffffffffffffffff816024840111818411171561115a575050505061119f565b82840192508251915080821115611174575050505061119f565b503d8301602082840101111561118c5750505061119f565b601f01601f191681016020016040529150505b9056fea2646970667358221220f23fa8373c6263219f90ce27fefc04149a89ac6618cb289ba1d94798b3acf9f564736f6c63430008000033",
  "devdoc": {
    "details": "This contract is meant to be deployed to side-chains in which Reality.eth is deployed.",
    "kind": "dev",
    "methods": {
      "constructor": {
        "params": {
          "_fxChild": "Address of the FxChild contract of the Polygon bridge",
          "_realitio": "Realitio contract address."
        }
      },
      "handleNotifiedRequest(bytes32,address)": {
        "details": "This method exists because `receiveArbitrationRequest` is called by the Polygon Bridge and cannot send messages back to it.",
        "params": {
          "_questionID": "The ID of the question.",
          "_requester": "The address of the user that requested arbitration."
        }
      },
      "handleRejectedRequest(bytes32,address)": {
        "details": "This method exists because `receiveArbitrationRequest` is called by the Polygon Bridge and cannot send messages back to it. Reasons why the request might be rejected:  - The question does not exist  - The question was not answered yet  - The quesiton bond value changed while the arbitration was being requested  - Another request was already accepted",
        "params": {
          "_questionID": "The ID of the question.",
          "_requester": "The address of the user that requested arbitration."
        }
      },
      "receiveArbitrationAnswer(bytes32,bytes32)": {
        "params": {
          "_answer": "The answer from the arbitrator.",
          "_questionID": "The ID of the question."
        }
      },
      "receiveArbitrationFailure(bytes32,address)": {
        "details": "Currently this can happen only if the arbitration cost increased.",
        "params": {
          "_questionID": "The ID of the question.",
          "_requester": "The address of the user that requested arbitration."
        }
      },
      "receiveArbitrationRequest(bytes32,address,uint256)": {
        "details": "Receives the requested arbitration for a question. TRUSTED.",
        "params": {
          "_maxPrevious": "The maximum value of the previous bond for the question.",
          "_questionID": "The ID of the question.",
          "_requester": "The address of the user that requested arbitration."
        }
      },
      "reportArbitrationAnswer(bytes32,bytes32,bytes32,address)": {
        "details": "The Realitio contract validates the input parameters passed to this method, so making this publicly accessible is safe.",
        "params": {
          "_lastAnswerOrCommitmentID": "The last answer given, or its commitment ID if it was a commitment, to the question in the Realitio contract.",
          "_lastAnswerer": "The last answerer to the question in the Realitio contract.",
          "_lastHistoryHash": "The history hash given with the last answer to the question in the Realitio contract.",
          "_questionID": "The ID of the question."
        }
      }
    },
    "stateVariables": {
      "metadata": {
        "details": "Metadata for Realitio interface."
      },
      "questionIDToRequester": {
        "details": "Associates a question ID with the requester who succeeded in requesting arbitration. questionIDToRequester[questionID]"
      },
      "realitio": {
        "details": "The address of the Realitio contract (v3.0 required). TRUSTED."
      },
      "requests": {
        "details": "Associates an arbitration request with a question ID and a requester address. requests[questionID][requester]"
      }
    },
    "title": "Arbitration proxy for Realitio on the side-chain side (A.K.A. the Home Chain).",
    "version": 1
  },
  "userdoc": {
    "events": {
      "ArbitrationFailed(bytes32,address)": {
        "notice": "To be emitted when the dispute could not be created on the Foreign Chain."
      },
      "ArbitrationFinished(bytes32)": {
        "notice": "To be emitted when reporting the arbitrator answer to Realitio."
      },
      "ArbitratorAnswered(bytes32,bytes32)": {
        "notice": "To be emitted when receiving the answer from the arbitrator."
      },
      "RequestAcknowledged(bytes32,address)": {
        "notice": "To be emitted when the arbitration request acknowledgement is sent to the Foreign Chain."
      },
      "RequestCanceled(bytes32,address)": {
        "notice": "To be emitted when the arbitration request is canceled."
      },
      "RequestNotified(bytes32,address,uint256)": {
        "notice": "To be emitted when the Realitio contract has been notified of an arbitration request."
      },
      "RequestRejected(bytes32,address,uint256,string)": {
        "notice": "To be emitted when arbitration request is rejected."
      }
    },
    "kind": "user",
    "methods": {
      "constructor": {
        "notice": "Creates an arbitration proxy on the home chain."
      },
      "handleNotifiedRequest(bytes32,address)": {
        "notice": "Handles arbitration request after it has been notified to Realitio for a given question."
      },
      "handleRejectedRequest(bytes32,address)": {
        "notice": "Handles arbitration request after it has been rejected."
      },
      "receiveArbitrationAnswer(bytes32,bytes32)": {
        "notice": "Receives the answer to a specified question. TRUSTED."
      },
      "receiveArbitrationFailure(bytes32,address)": {
        "notice": "Receives a failed attempt to request arbitration. TRUSTED."
      },
      "reportArbitrationAnswer(bytes32,bytes32,bytes32,address)": {
        "notice": "Reports the answer provided by the arbitrator to a specified question."
      }
    },
    "version": 1
  },
  "storageLayout": {
    "storage": [
      {
        "astId": 2775,
        "contract": "src/RealitioHomeArbitrationProxy.sol:RealitioHomeArbitrationProxy",
        "label": "fxChild",
        "offset": 0,
        "slot": "0",
        "type": "t_address"
      },
      {
        "astId": 2777,
        "contract": "src/RealitioHomeArbitrationProxy.sol:RealitioHomeArbitrationProxy",
        "label": "fxRootTunnel",
        "offset": 0,
        "slot": "1",
        "type": "t_address"
      },
      {
        "astId": 2311,
        "contract": "src/RealitioHomeArbitrationProxy.sol:RealitioHomeArbitrationProxy",
        "label": "requests",
        "offset": 0,
        "slot": "2",
        "type": "t_mapping(t_bytes32,t_mapping(t_address,t_struct(Request)2303_storage))"
      },
      {
        "astId": 2316,
        "contract": "src/RealitioHomeArbitrationProxy.sol:RealitioHomeArbitrationProxy",
        "label": "questionIDToRequester",
        "offset": 0,
        "slot": "3",
        "type": "t_mapping(t_bytes32,t_address)"
      }
    ],
    "types": {
      "t_address": {
        "encoding": "inplace",
        "label": "address",
        "numberOfBytes": "20"
      },
      "t_bytes32": {
        "encoding": "inplace",
        "label": "bytes32",
        "numberOfBytes": "32"
      },
      "t_enum(Status)2297": {
        "encoding": "inplace",
        "label": "enum RealitioHomeArbitrationProxy.Status",
        "numberOfBytes": "1"
      },
      "t_mapping(t_address,t_struct(Request)2303_storage)": {
        "encoding": "mapping",
        "key": "t_address",
        "label": "mapping(address => struct RealitioHomeArbitrationProxy.Request)",
        "numberOfBytes": "32",
        "value": "t_struct(Request)2303_storage"
      },
      "t_mapping(t_bytes32,t_address)": {
        "encoding": "mapping",
        "key": "t_bytes32",
        "label": "mapping(bytes32 => address)",
        "numberOfBytes": "32",
        "value": "t_address"
      },
      "t_mapping(t_bytes32,t_mapping(t_address,t_struct(Request)2303_storage))": {
        "encoding": "mapping",
        "key": "t_bytes32",
        "label": "mapping(bytes32 => mapping(address => struct RealitioHomeArbitrationProxy.Request))",
        "numberOfBytes": "32",
        "value": "t_mapping(t_address,t_struct(Request)2303_storage)"
      },
      "t_struct(Request)2303_storage": {
        "encoding": "inplace",
        "label": "struct RealitioHomeArbitrationProxy.Request",
        "members": [
          {
            "astId": 2300,
            "contract": "src/RealitioHomeArbitrationProxy.sol:RealitioHomeArbitrationProxy",
            "label": "status",
            "offset": 0,
            "slot": "0",
            "type": "t_enum(Status)2297"
          },
          {
            "astId": 2302,
            "contract": "src/RealitioHomeArbitrationProxy.sol:RealitioHomeArbitrationProxy",
            "label": "arbitratorAnswer",
            "offset": 0,
            "slot": "1",
            "type": "t_bytes32"
          }
        ],
        "numberOfBytes": "64"
      }
    }
  }
}